:0200000400609A
:040000006F0000018C
:1000100081400141814101428142014381430144C8
:100020008144014581450146814601478147014898
:10003000814801498149014A814A014B814B014C68
:10004000814C014D814D014E814E014F814FF9622E
:1000500073A002308542FE0263C3020001A0970232
:1000600000009382020973905230731030005300E5
:1000700000F0D30000F0530100F0D30100F0530270
:1000800000F0D30200F0530300F0D30300F0530458
:1000900000F0D30400F0530500F0D30500F0530640
:1000A00000F0D30600F0530700F0D30700F0530828
:1000B00000F0D30800F0530900F0D30900F0530A10
:1000C00000F0D30A00F0530B00F0D30B00F0530CF8
:1000D00000F0D30C00F0530D00F0D30D00F0530EE0
:1000E00000F0D30E00F0530F00F0D30F00F0970292
:1000F000000093822204739052309701A1FF9381F4
:10010000617017021A001302D2F3137202FC7325F6
:1001100040F185456370B500131615013292171131
:10012000A0FF130121EE6111EF709075EF70500D7B
:1001300002906D7106C20AC40EC612C816CA1ACC45
:100140001ECE22D026D22AD42ED632D836DA3ADCA7
:100150003EDEC2C0C6C2CAC4CEC6D2C8D6CADACC77
:10016000DECEE2D0E6D2EAD4EED6F2D8F6DAFADC87
:10017000FEDE73252034F32510340A86EF703064D8
:100180007310153489629382028073A0023092400A
:100190002241B2414242D2426243F243025492545B
:1001A0002255B2554256D2566257F25706489648E3
:1001B0002649B649464AD64A664BF64B065C965CDB
:1001C000265DB65D465ED65E665FF65F5161730082
:0201D0002030DD
:1001E0007375043082800000736504308280397139
:1001F0002ADE2EDC2ADA0326851632D80325451995
:100200002AD681CD3255B9452310B5003255E54582
:100210002311B5003255E94531A832559305C00286
:100220002310B5003255930550022311B500325505
:100230009305B0022312B50032559145231AB50437
:1002400032550546231BC50432559546231CD5045B
:1002500032559946231DD50432558D46231ED504AB
:1002600032558946231FD50432552310B506325521
:100270002311C50632552314C50032552313C5007A
:100280003255231505003255B7E596019385A56AC9
:100290002CDD3255B705A0414CC93255B705C841D0
:1002A0000CCD3255B705803F0CD53255B705003F10
:1002B0004CD532550CD93255856593858538231335
:1002C000B50821618280397106DE2ADC231BB10268
:1002D0002AF82AD60326851632D403264519138513
:1002E000F5FF954532D263E2A5100A05B7A5600077
:1002F000938545D72E950841028522550841CD2882
:1003000022554841F52822550845DD2042703255D6
:10031000272C05223255232E052299A0225508416B
:10032000C12822554841E92022550845D12842706C
:10033000325553100020272C05224270325595A8C3
:10034000225508417528225548415D20225508450F
:1003500045203255232C052242703255272E052286
:100360004270325553100020BDA82255084149283B
:1003700022554841B528225508459D283255232C41
:1003800005224270325553100020272E052291A8D5
:1003900022550841B128225548419928225508453F
:1003A000852042703255272C052242703255531059
:1003B0000020272E05223255232005243DA022555A
:1003C00008413D20225548412528225508450D2049
:1003D0004270325553100020272C05223255232E0F
:1003E00005224270325527200524F2502161828077
:1003F000797106D62AD49145B127B25045618280E1
:10040000797106D62AD49145EF00E07EB25045615D
:100410008280597186D607A0C16787A00168C96527
:1004200027A205602AD8C96527A415602AD6032506
:1004300045192AD40355850085456314B5342255E2
:10044000831545048605AA95839545052310B504B3
:100450003255A2550720C50087A045015320002032
:10046000531510A03DC522550355650063100520A6
:10047000225503258508D5456365B50E225585456A
:100480002313B50022552324050822550355A50042
:100490006317B50E325503254518AAD4B7D5CC3D00
:1004A0009385D5CCAED237D6A33B1306A670B2D077
:1004B000AACE0CC106707645272205003255832549
:1004C000C518225607A085008720C60303250519F5
:1004D000EDA83255A2550720C50087A085015320FD
:1004E0000020539500A063030518225503556500AD
:1004F0008545631DB51622550325C508D545636995
:10050000B50622552313050022552326050822553A
:100510000355A50085456312B50C325503254518D2
:10052000AAD4B7050040AED237D6A33C1306A670B6
:10053000B2D0AACE0CC106707645272205003255EE
:1005400003258518AAD482D2AAD0232405003255C7
:100550008325051907A0850087A081660325C51896
:10056000E5A022558325850885052324B508FDA827
:1005700022558325C50885052326B508C5A832550B
:1005800003254518AAD4B7B5603D9385D5B0AED242
:1005900037E6CD3C1306E632B2D0AACE0CC10670C7
:1005A00076452722050032550325C518072085000A
:1005B00022552722050232558325C518225607A049
:1005C0008500872046030325451853701010AAD4D0
:1005D00082F2AAD02724050051A8325503254518D8
:1005E00007A0416787A08167AAD482F286F0AACECD
:1005F0002720050006707645272205002255B255B2
:10060000072045028720850203A545185370101066
:10061000AAD482F2AAD0272405002255B255072079
:1006200045028720C50203A5C51853701010AAD42F
:1006300082F2AAD0272405002255B2550720450290
:1006400003A58518D30000F053701010AAD482F2CD
:10065000AAD02724050032550325851608410946EE
:100660008145B12A3255032585166124225503554B
:1006700065006308051032550720050D2726050C77
:1006800022550720C5073255272605002255035558
:10069000A50085456312B5102255835525053256B0
:1006A0008A05B29507A0C51F272E050032550720E1
:1006B00085052255272005023255A2550325051927
:1006C00007A0050287A0C50193854502AACE82EC4A
:1006D00086EAAEC8AAD4AAD20720050082E4AAD42A
:1006E000AAD207204500764582E2AAD4AAD20720E2
:1006F0008500764502FEAAD4AAD20720C501764518
:1007000002FCAAD4AAD207208501E660566102FA4B
:10071000A661D3F0200886E61661D3F01110F271BD
:1007200086E0D37011106271D3F0110076455390BA
:1007300000285300202802FEAAD482F2AAD027243F
:10074000050076456660AAD482F2AAD02726050065
:1007500076455660AAD482F2AAD027280500066002
:10076000F2705271E2714645537010005310202808
:1007700053003028272005002256325583550604A1
:1007800015A832550720050D2726050C32550720E0
:10079000450E272605000DA032550720850587A0A8
:1007A000C166225553701010272205022256325579
:1007B000835526044872013EB650656182803971C6
:1007C00006DE2ADC2EDA32D8C92E11E937A5600000
:1007D0001305C5D885659385854CEF8050774255C4
:1007E000A145630EB5004255B145630AB5004255B7
:1007F000A9456306B5004255B945631EB508425583
:1008000005812AD6525521C5625503250529E5756E
:100810003256FD15E2566D8D9315C6004D8D23A8F9
:10082000A62842559145630EB50042559945630A85
:10083000B500425595456306B50042559D45631E7A
:10084000B50462558325052993F5F5FD81A0625510
:1008500003250529B25562561375F58FA2054D8DF6
:100860002328A62842559145630EB5004255994567
:10087000630AB500425595456306B50042559D454E
:100880006313B504625583250529BD992328B5282E
:10089000F250216182804255ADB74255A145630EA9
:1008A000B5004255B145630AB5004255A9456306F6
:1008B000B5004255B945E31DB5FC625583250529B0
:1008C00093E50502E1B74255A145630EB5004255D7
:1008D000B145630AB5004255A9456306B5004255C6
:1008E000B945E317B5FA62558325052993E5050156
:1008F00071BF797106D62AD42AD24845812E125565
:100900004845B52E12550849912612550849852E9D
:1009100012554849252E1255484995261255084129
:100920009305E0070524125548419305E007192C6B
:10093000125508459305E007312412558545230ECD
:10094000B502B25045618280397106DE2ADC2EDAAA
:100950002AD8032545192AD603550500492AB25538
:100960000A052391A5043255035525004922B255A5
:1009700003962504060532952391A50432550355A7
:100980004500B522B2550396250432952391A5045E
:100990003255831525042312B504525511C5D2557D
:1009A00005456384A50021A00945A305A102325590
:1009B00083154504031565046389A5084965032566
:1009C000C5608345B1029522B255E8D132552C5508
:1009D0007051918D6CD532556C512CD532556C556A
:1009E0003059B29585816CD932556C552CD9325518
:1009F0002C5D705953F015D0D37016D05370101869
:100A0000272E050632558315450413064505831622
:100A100065048605B295839505008606369603160D
:100A20000600918D2315B50432550315A504FD5517
:100A30006308B50032550315A50495456318B50242
:100A4000325589452316B504A1A8325583154508AA
:100A500085052312B50832558355450803556508A9
:100A60006354B5083255232E0506A5A832558315C3
:100A7000A50405456388A500B2558395A5046D5668
:100A8000639DC500B2552396A50432550720C507BE
:100A900053100020272E050621A0325523160504E9
:100AA00032558355C5040355E5046389A5003255C5
:100AB000232E0506325585452318B5043255831576
:100AC00065042314B5043255831545042313B50476
:100AD00032558315C5042317B504325585452316B1
:100AE000B500325523120508F250216182807971D8
:100AF00006D62AD4D52A09E937A560001305D5DF23
:100B000093050018EF80B044225505814199B745FF
:100B10000300938505E02E952AD20841A25533554E
:100B2000B5000589B25045618280397106DE2ADC44
:100B3000231BB1022AD88A052E950849D92AF250DA
:100B400021618280797106D62AD42ED2B92011E98A
:100B500037A560001305C5D885659385B525EF8059
:100B6000103F125593050008636BB50037A5600070
:100B70001305C5D885659385C525EF80503D73E085
:100B8000107C225592550326C525D18D232EB524E0
:100B900073F0107CB250456182807971AA852AD6A3
:100BA000296605456387C504B2551306064063826E
:100BB000C5043256AD6593860580630CD602325665
:100BC000938505C06307B6023256AD656303B6026E
:100BD000325693850540630EB6003256B165938652
:100BE00005806308D6003255938505C02D8D1335D9
:100BF000150045618280797106D62AD42ED2713FC4
:100C000011E937A560001305C5D885659385D52CF6
:100C1000EF80F03303554102137515F811C937A55C
:100C200060001305C5D885659385E52CEF803032CB
:100C300073E0107C225592550326C526D18D2326BC
:100C4000B52673F0107CB25045618280797106D66A
:100C50002AD4B92809E937A56000130545DC9305B6
:100C6000502EEF80D02E73E0107C22554C4593E53A
:100C700025004CC573F0107CB250456182807971BB
:100C800006D62AD4352009E937A56000130545DCCE
:100C900093053030EF80B02B73E0107C22554C452B
:100CA00093E505204CC573F0107CB25045618280FD
:100CB0007971AA852AD6396693060680054563832D
:100CC000D502B25513060688638EC5003256B96543
:100CD000938605906308D6003255938505982D8D2F
:100CE00013351500456182807971AA852AD61306CD
:100CF000C003054563EAC50032559305000E6367DE
:100D0000B50032551335850F456182800145456137
:100D10008280797106D62AD4392809E937A560007E
:100D2000130555E393050014EF8070222255084106
:100D3000B250456182807971AA852AD6156605452B
:100D4000638DC500B25541066389C500325595656E
:100D5000938505022D8D133515004561828039710B
:100D600006DE2ADC0D45231BB102639DA50037B5C5
:100D7000AA3E1305B5AA2AD837D5133F1305A5D324
:100D80002AD619A002D802D662554275B27501283A
:100D90006255834561030520F2502161828079719B
:100DA0002AD62AF42EF22AD008E112700255272200
:100DB00005004561828079712AD6A305B1022AD245
:100DC0002304B50045618280397106DE2ADC0D45B9
:100DD000231BB1026397A50037B5AA3E1305B5AA38
:100DE00001A8035561038945631BB5003705803FA2
:100DF0002AD837D5133F1305A5D32AD619A002D870
:100E000002D662554275B275593F625583456103FA
:100E10005D37F25021618280397106DE2AD62AD4EC
:100E20000345552A058915C12255832585190720B3
:100E3000C5002EDC02FA2ED827A205002255231C5D
:100E4000052422552303052A1DA022550325C51676
:100E5000EF80702D22550325C516EF80302E2255C8
:100E6000032585192ADC02DA2AD823220500225517
:100E700003258519530500F0C92022550325851641
:100E8000E1202255032585182ADC02DA2AD82326F8
:100E9000050022550325C5182ADC02DA2AD82326A4
:100EA00005002255032545182ADC02DA2AD8232614
:100EB00005002255032585182ADC02DA2AD82324C6
:100EC000050022550325C5182ADC02DA2AD8232476
:100ED00005002255032545182ADC02DA2AD82324E6
:100EE000050022552328050A2255232A050A2255E2
:100EF000232A05042255232C05042255232A050202
:100F00002255231C05242255231C051C2255231D74
:100F1000051C2255231F051C2255231E051C225586
:100F20002311051E22552310051E22550325C51920
:100F300081459920F2502161828079712AD62AF464
:100F40002AD208E145618280797106D62AD42AD254
:100F500008419145EF00D052125548419145EF00AC
:100F60003052125508459145EF0090511255230E0D
:100F70000502B2504561828079712AD62ED42AD2D8
:100F80000CC545618280757106C7AADCAADA032503
:100F90004516AAD80720450482F68720850486F4E2
:100FA000072105048AF25370011882F0537011185A
:100FB00082EE0720C50582EC8315A5008720051267
:100FC000465553F105D0D370111886EA072145051F
:100FD00087218505537131108AE83671867107A221
:100FE0004168537001102671E662D3F14110D3F0CD
:100FF000111082E6537151108AE27661D66186E45F
:10100000565553714110537131108AE003258518EC
:101010002AC502E306E1AADE272005000A6076550C
:10102000272205005655032585182AC502C32AC163
:10103000232405005655032585182AC502C32AC155
:10104000232605005655032585182AC502C32AC143
:10105000232805005655032585182AC502C32AC131
:10106000232A05005655466003258518D310002015
:101070002AC506E302E1AADE272C15000A60765590
:10108000272E050056550325C518166086602AC50B
:1010900002E306E1AADE272005000A607655272232
:1010A000050056550325C5182AC502C32AC12324A5
:1010B000050056550325C5182AC502C32AC1232693
:1010C000050056550325C5182AC502C32AC1232881
:1010D000050056550325C5182AC502C32AC1232A6F
:1010E000050056550325C5182AC502C302C1AADE4C
:1010F000232C05000A607655272E0500465507204B
:10110000450687A08168530510A031C146550720C8
:10111000C50487A0C1680721C52053701010537003
:10112000201802FE8720C50407A101698721051345
:101130005655D3F02010D3F0301006FC0325451887
:101140002AC502E306E1AADE27200500B9A046551C
:101150008315C50007200512D3F005D053F0001801
:1011600002FE8720050606FC07214506E6610AFA0D
:1011700053F1201053F121180AF853F0011056557D
:10118000D3F010105370101802F6032545182AC525
:101190000AE302E1AADE272025000A60765527220D
:1011A00005005655032545182AC502C32AC1232424
:1011B00005005655032545182AC502C32AC1232612
:1011C00005005655032545182AC502C32AC1232800
:1011D00005005655032545182AC502C32AC1232AEE
:1011E00005004655D6550720C50403A54518D3105C
:1011F00000202AC506E302E1AADE272C15000A60BA
:101200007655272E050066552120BA404961828017
:1012100039712ADA2AD8832505162ED60325851892
:101220002ADE2ADC0720050027A4050242550325F3
:1012300085182ADE2ADC07204500325527260502BC
:1012400042550325C5182ADE2ADC07200500325541
:101250002728050242550325C5182ADE2ADC072067
:1012600045003255272A05024255032545182ADE36
:101270002ADC0720050032552720050242550325A8
:1012800045182ADE2ADC07204500325527220502B0
:101290002161828079712AD62AD42313010209455B
:1012A000C165FD15035661026340C5040356610222
:1012B000A256060636962318060003566102A25669
:1012C00006063696231BB60003566102A256060692
:1012D0003696231E06000316610205062313C1027B
:1012E00003566102E354C5FC225585452301B5022E
:1012F00045618280797106D62AD42AD283250516C3
:101300002ED003456529058931C512550345852928
:10131000058911C512558545A30BB52825A8125579
:101320000355052901C9125583150529FD152318F3
:10133000B5280DA012550325C516EF80E066630E93
:10134000052E02550315C50992552398A528125557
:10135000A30B052812550355851E6358A00012558E
:101360008315851EFD152314B51E125582550720C1
:10137000851F87A0C507539500A00DC11255825542
:101380000355451D83D5C50863DDA5021255831598
:10139000E51E93E515002317B51E15A812558255B5
:1013A0000720851F87A00508531510A00DC11255F1
:1013B0000355451D6301051212558315451DFD1585
:1013C00029A012558315451D8505231AB51C1255F4
:1013D00082550720851F87A04508531510A00DC111
:1013E000125582550355651D83D5C50863DCA502DA
:1013F00012558315E51E93E525002317B51E0DA88C
:10140000125582550720851F87A08508539500A097
:1014100005C112550355651D71C512558315651D0E
:10142000FD1529A012558315651D8505231BB51CC7
:101430001255032505279145631CB5261255825583
:101440000720451587A08505539500A009CD1255A5
:1014500082550355851D83D5E50863D0A502125535
:10146000231C051C0DA012550355851D635DA000AE
:1014700012558315851DFD1529A012558315851D4F
:101480008505231CB51C125582550720050487A02D
:10149000C505539500A015C5125582550720C501F5
:1014A00087A08506531510A009CD12558255035506
:1014B000A51D83D5050963DEA5021255231D051C54
:1014C0003DA812550355A51D635BA0021255831557
:1014D000A51DFD151DA012558355E51EF99923176D
:1014E000B51EF5B512558355E51EF5992317B51EA2
:1014F00081B712558315A51D8505231DB51C1255F1
:1015000082550720C50187A08506539500A039CDD7
:10151000125582550720051287A00505531510A006
:101520001DE1125582550720451287A00505531568
:1015300010A011E9125582550720851287A00505D4
:10154000531510A005C5125582550355E51D83D5C9
:10155000450963D7A50212558315E51E93E50508D5
:101560002317B51E1255231F051C0DA01255035538
:10157000E51D635DA00012558315E51DFD1529A02D
:1015800012558315E51D8505231FB51C125582557F
:101590000720050487A00506539500A0630A0510DF
:1015A000125582550720051587A04505539500A0C3
:1015B00009CD125582550355C51D83D5250963D024
:1015C000A5021255231E051C0DA012550355C51D5D
:1015D000635DA00012558315C51DFD1529A0125588
:1015E0008315C51D8505231EB51C12558255072080
:1015F000050487A0C505531510A015C512558255C1
:101600000720C50187A08506531510A009CD1255E6
:1016100082550355251E83D5850963D7A50212552A
:101620002311051E05A812550355251E6354A0025B
:1016300012558315251EFD1521A802550315E50930
:1016400092552398A528F9B112558315251E8505B5
:101650002311B51E125582550720C50187A04506E6
:10166000539500A015C5125582550355051E83D507
:10167000650963D9A50212558315E51E0566130693
:101680000680D18D2317B51E12552310051E0DA0FF
:1016900012550355051E635DA00012558315051EE6
:1016A000FD1529A012558315051E85052310B51EAD
:1016B000B25045618280397106DE2ADC2ADA0345A0
:1016C000D52A05896309051A5255A306052A5255DC
:1016D000072045118720C50F53701010537500580F
:1016E0005325A5A06309051A52552720A512525566
:1016F000072085118720C50F5370101053750058AF
:101700005325A5A0630E051852552722A512525540
:101710000720C5118720C50F53701010537500584E
:101720005325A5A06303051852552724A512525529
:10173000072085138720051053701010537500582B
:101740005325A5A06308051652552722A514525506
:101750000720C513872005105370101053750058CB
:101760005325A5A0630D051452552724A5145255E1
:10177000072005148720051053701010537500586A
:101780005325A5A06302051452552726A5145255CA
:101790000720051287204512539500A052550720B7
:1017A000051202F80720451202F65255072085124D
:1017B000C270539500A009C552550720851211A08B
:1017C0004270525502F807208512B270531510A0CE
:1017D00009C552550720851211A03270525502F6E4
:1017E0000720850F8720C5015370101802F4872049
:1017F000850F539500A009C552550720850F11A0EC
:101800002270525502F4D31510C02318B51C52553E
:101810008355051D07A04169D3F015D053701018EA
:10182000272E050E52550720C50F272005104270A0
:10183000B270525553711008537010005370011854
:101840002728051452550720051287204514072123
:10185000451287218514072285128722C5145370EB
:101860001010D370311053701000D3705210537099
:101870001000272A05145255072045078720C50167
:10188000072145105370101053702010272C051499
:10189000F2502161828053050020EF80404DA9B5B0
:1018A00053050020EF80A04C85B553050020EF8044
:1018B000004C9DBD53050020EF80604B71B5530572
:1018C0000020EF80C04A4DB553050020EF80204A2C
:1018D00065BD797106D62AD42AD2832505271145FC
:1018E00063E6A500925523A8A52629A012558D458B
:1018F0002328B52612550345552A058901C51255D9
:10190000894519A012558D452326B5261255232445
:10191000050012550325C5198145EFF0EFE5125575
:101920008545A30DB5281255231C05241255831592
:10193000C51E85052316B51EB2504561828079719A
:1019400006D62AD42AD2232405001255A30D052831
:10195000125523260526125591452328B5261255E2
:101960000325C5198145EFF02FE112552315051EFA
:10197000B25045618280397106DE22DC22FA2AD813
:101980002AD6832505162ED40345B529058945C9D0
:1019900032550325C516EF80A011B945631CB50467
:1019A000325503457529058931C532550325C516BC
:1019B0008545EF80C01F3255A2550325C516A86581
:1019C000EF80C02622550720C501872045005370AF
:1019D000100802F28720450007A1816953200020EA
:1019E000D3F02010531510A039C932550325C51660
:1019F0008545A1A032550325C516530400F05305B3
:101A00008420EF80A02232550325C516530584207B
:101A1000EF80402032550324C5162285EF808006D2
:101A20002285EF80A01D32550325C5168145EF8024
:101A3000001832550325C5168145EF80801A52746F
:101A40006254F25021618280797106D62AD42AD25A
:101A5000832505162ED00325C516EF806005925507
:101A600023A4A52812550325C516EF80C00592555D
:101A700023A6A52812550325C516EF70507F0255E1
:101A800008E112550325C516EF70D07F025548E1D5
:101A900012550325C516EF707079025508E51255E9
:101AA0000325C516EF70F079025548E51255032558
:101AB000C516EF70D070025548E912550325C516BA
:101AC000EF70F06F07A0C169025553700510272809
:101AD000050012550325C516EF703071025568E5F3
:101AE00012550325C516EF703077025508ED1255D3
:101AF0000325C516EF70D061125568F912550325FC
:101B0000C516EF709079025548ED12550720050A69
:101B10008720450A53700010D3F010105370100046
:101B2000537500585325A5A005C9125528E1125533
:101B3000072005088720450853700010D3F01010C7
:101B400053701000537500585325A5A019C912559C
:101B500068E1B2504561828053050020EF8020216A
:101B6000E9B753050020EF808020D5B779712AD6D8
:101B70002AD40720C51F872085105370001053F00A
:101B80000000272405102255072005208720C510B6
:101B90005370001053F0000027260510225507202F
:101BA0004520872005115370001053F000002728AE
:101BB00005102255072085208720C512537000107C
:101BC00053F000002726051222550720C520872044
:101BD00005135370001053F00000272805122255FA
:101BE00007200521872045135370001053F0000093
:101BF000272A051222558315251D85052319B51C95
:101C000022558355251D0355051D6359B5062255DB
:101C100007208510272A051022550720C510272CDC
:101C20000510225507200511272E051022552324C3
:101C3000051022552326051022552328051022556C
:101C40000720C512272C0512225507200513272E21
:101C50000512225507204513272005142255232657
:101C600005122255232805122255232A0512225532
:101C70002319051C22558545A306B52A4561828096
:101C8000797106D62AD42ED2B92011E937A5600081
:101C90001305C5D885659385D52CEF70502B03555A
:101CA0004102137515F811C937A560001305C5D891
:101CB00085659385E52CEF70902973E0107C2255A3
:101CC00092550326C526D18D2326B52673F0107CA8
:101CD000B250456182807971AA852AD62966054568
:101CE0006387C504B255130606406382C5043256A5
:101CF000AD6593860580630CD6023256938505C088
:101D00006307B6023256AD656303B6023256938559
:101D10000540630EB6003256B165938605806308B0
:101D2000D6003255938505C02D8D133515004561BC
:101D30008280797106D62AD42ED22AD0A9E1025502
:101D4000C165938505002320B5160255C1659385AD
:101D500085152322B5160255C9659385C56A2326C4
:101D6000B516138581D793050004EF20E050825506
:101D700023A4A5160255938581DF2320B51A125599
:101D800085456311B5040255C1659385C50A2320B5
:101D9000B5160255938581B62322B5160255CD6539
:101DA000938545BD2326B516138581DB9305000475
:101DB000EF200054825523A4A51602559385C1E156
:101DC0002320B51AB250456182801D7186CEA2CC07
:101DD000A6CACAC8A2E62ADE2EDC2ADA83250516A0
:101DE0002ED8832545162ED603254516EF70D076BE
:101DF000D25503A5851683A545166256EF20505D82
:101E0000525503254516EF50E031625563170556CC
:101E1000525503254516EF50E0304255B7D54C3D9D
:101E20009385D5CC0CD14255B7D5A33B9385A570EE
:101E30004CD14255B755B83C9385C51E0CDD425573
:101E4000B775133B9385C54B4CDD4255B7C532BEC4
:101E50009385358C2CC14255B775133F9385C54B7F
:101E60006CC14255B7D58C3F9385D5CC2CC5425516
:101E7000B7D54C3E9385D5CC2CC942556CC942553B
:101E800037067A4330CD42553706A04070CD4255D3
:101E9000B73673419386363334D14255B706AF43D4
:101EA00074D1425530D54255373686351306D67B28
:101EB00070D5425537B6BA411306B6F830D94256F6
:101EC0003705704168DA4256B7C6AD429386B650C0
:101ED00034DE4256B706544274DE4256B7065242CA
:101EE0002320D60842562322B608C2553706204181
:101EF00023A4C508C2551306401F2396C508C25522
:101F00001306800C2397C508C2552398C508C255EF
:101F10001306803E2399C508C2559306007D239A77
:101F2000D508C25513078025239BE508C255239C7D
:101F3000D508C2559546239DD508C2552390C50A9C
:101F4000C2552391C50AC2550D462392C50AC255F2
:101F50000566130606C02393C50AC2551306004042
:101F60002394C50AD2552394051EB25507A08501B6
:101F7000D25527A80522B25507A08501D25527AA18
:101F80000522B25507A0C501D25527A60522D25574
:101F9000A38C0528D25523AE0526D25531661306EB
:101FA00036032399C51ED2553706A041D0C9D25554
:101FB00088CD5255B70540404CD15255B705F04138
:101FC0000CD552554CD55255B785103F9385351CCD
:101FD0002CC55255B7C558419385452A6CC55255F5
:101FE000B705C03F2CD152556CD15255B705304181
:101FF0002CD552556CD55255B70500406CCD525575
:10200000B715C93F9385B5FD2322B510325507207A
:1020100005125255272C050E5255B7A55B399385ED
:10202000E5CF232EB50A32550720051287A0016A95
:10203000525553701010D31510C02310B5265255A9
:10204000232A052632550345451D058909C95255E0
:1020500085452320B5285255A304B52A39A05255E9
:10206000232005285255A304052A52550549A30EDD
:1020700025295255A302052A52552304052A5255F3
:10208000A301252B52552302252B52552324252904
:102090005255232625295255A30F252932550720AD
:1020A000051207A4416A525553708010D31510C011
:1020B000231EB5243255072005125255D31510C0E2
:1020C000231DB524325507200512525553700000C8
:1020D000D31510C0231FB5246255B14433059502B2
:1020E000D255138601E4329523A8A5165255B25550
:1020F0000325051783C5F500EFE07FC6625533055C
:102100009502D255138681E5329523AAA51652551C
:10211000B2550325451783C5E500EFE0FFCA6255B8
:102120005256938501E70E052E95232CA61662556F
:102130005256938501E80E052E95232EA61662555C
:102140005256938501E90E052E952320A618625557
:102150005256938501EA16052E952324A61862553A
:102160005256938501EE16052E952326A618625524
:102170005256938501F216052E952322A618625514
:1021800033059502D255138601F6329523AEA51874
:1021900052550325C5198145EF0060755255130549
:1021A000852307A5816A87A5C16A53068420EF406D
:1021B00010596255D1453305B502D255138681F7C2
:1021C000329523ACA518525503258519530500F007
:1021D000EF00C072525503258519AAC482C2AAC055
:1021E000232205003255D2550720C52003A58519A5
:1021F00053150020EF0060715255B2550325851923
:1022000007A5C520EF0040713255D2550720451370
:102210008720051203A5851953751018EF00A070CB
:10222000525503258516EF30C0555255E25503250A
:10223000851693044002B3859502138481DFA2952D
:10224000EF30C056031544008315040113650508DB
:102250001375F5F92312A40013E5E5041375E5C71A
:1022600083154401136505102318A400525593E506
:10227000052493F5F5A7231AB40003258516EF006E
:10228000606B625533059502D25522956256230C38
:10229000250103A58516B3059602A295EF30A04F40
:1022A000D25503A5C51683A54516EF702065D255F6
:1022B00003A5C51683C5D529EF70300CD25503A5EB
:1022C000C51683C53529EF703010D25503A5C51644
:1022D00083A5451607A5016BEF705018D25503A5CD
:1022E000C51683A5451607A4416B53058420EF70DE
:1022F0009018D25503A5C51683A54516530584200D
:10230000EF7010193255085919EDD25503A5C516AD
:1023100083C54529EF701008D25503A5C51683C59E
:102320005529EF70F0035255230C05285255A30B85
:1023300005284255BD65938505A6231EB50842555F
:102340009965938505DC231FB5087255EFE0BFC37F
:10235000525503258516F92B52552310252B52551E
:10236000938501FA232AB518525593850103232832
:10237000B5187255E255EFD09FE762558545631158
:10238000B556525503254516EF50A0204255B7D5F6
:102390004C3D9385D5CC0CD14255B7D5A33B938505
:1023A000A5704CD14255B755B83C9385C51E0CDD80
:1023B0004255B775133B9385C54B4CDD4255B7C5A8
:1023C00032BE9385358C2CC14255B775133F93852A
:1023D000C54B6CC1C2553705C03FA8C5C25537D6DD
:1023E0004C3E1306D6CCB0C9C255F0C9C255B7068B
:1023F0007A43B4CDC255B706A040F4CDC2553737A5
:10240000734113073733B8D1C2553707AF43F8D1FB
:10241000C255B4D5C255B73686359386D67BF4D52A
:10242000C255B7B6BA419386B6F8B4D9C256B70505
:102430007041ECDAC25637C7AD421307B750B8DE69
:10244000C25637075442F8DEC2563707524223A01D
:10245000E608C25623A2C6084256B70620412324E6
:10246000D60842569306401F2316D60842569306B6
:10247000800C2317D60842562318D60842569306D6
:10248000803E2319D60842561307007D231AE6081A
:10249000425693078025231BF6084256231CE60864
:1024A00042561547231DE60842562310D60A4256C7
:1024B0002311D60A42568D462312D60A4256856605
:1024C000938606C02313D60A42569306004023146F
:1024D000D60A52562314061E32560720860152563B
:1024E000272806223256072086015256272A06221E
:1024F00032560720C6015256272606225256A30CF2
:1025000006285256232E06265256B1669386360367
:102510002319D61E5256B706A04154CA52560CCEA5
:102520005256B706404054D25256B706204214D6EF
:10253000525654D65256B786103F9386361C34C630
:102540005256B7C658419386462A74C6525628D268
:10255000525668D252553706304130D552556CD557
:102560005255B70500406CCD5255B715C93F9385FC
:10257000B5FD2322B5103255072005125255272CE0
:10258000050E5255B7A55B399385E5CF232EB50AC5
:1025900032550720051287A0016A5255537010105A
:1025A000D31510C02310B5265255232A05263255BF
:1025B0000345451D058909C9525585452320B52880
:1025C0005255A304B52A39A0525523200528525547
:1025D000A304052A52550544A30E85285255A3028B
:1025E000052A52552304052A5255A301852A52551E
:1025F0002302852A525523248528525523268528CF
:102600005255A30F852832550720051207A4416AA9
:10261000525553708010D31510C0231EB524325567
:10262000072005125255D31510C0231DB52432556D
:1026300007200512525553700000D31510C0231FF8
:10264000B5246255B14433059502D255138601E491
:10265000329523A8A5165255B2550325051783C5F3
:10266000F500EFE0CFEF625533059502D2551386A2
:1026700081E5329523AAA5165255B2550325451773
:1026800083C5E500EFE04FF462555256938501E7AC
:102690000E052E95232CA61662555256938501E8F9
:1026A0000E052E95232EA61662555256938501E9E6
:1026B0000E052E952320A61862555256938501EAE1
:1026C00016052E952324A61862555256938501EEC1
:1026D00016052E952326A61862555256938501F2AB
:1026E00016052E952322A618625533059502D2555C
:1026F000138601F6329523AEA51852550325C51948
:102700008145F52252551305852307A5816A87A5C2
:10271000C16A53068420EF4090026255D1453305CB
:10272000B502D255138681F7329523ACA5185255C0
:1027300003258519530500F0D1225255032585192B
:10274000AAC482C2AAC0232205003255D25507204E
:10275000C52003A5851953150020452A5255B255A9
:102760000325851907A5C520452A3255D2550720CE
:1027700045138720051203A5851953751018652286
:10278000525503258516EF20D07F52550325851617
:10279000938481DF93854402EF30400103958402E6
:1027A00083954403136505081375F5F92394A40272
:1027B00013E5E5041375E5C78395840313650510D8
:1027C000239AA402525593E5052493F5F5A7239C7B
:1027D000B40203258516B92A6255930540023305D4
:1027E000B50252562695E256230C8500032586161F
:1027F000B385B602A695EF20107AD25503A5C5166B
:1028000083A54516EF70800FD25503A5C51683C565
:10281000D529EF708036D25503A5C51683C5352955
:10282000EF70803AD25503A5C51683A5451607A5B6
:10283000016BEF70A042D25503A5C51683A54516BE
:1028400007A4416B53058420EF70E042D25503A5E5
:10285000C51683A5451653058420EF706043325595
:10286000085919EDD25503A5C51683C54529EF7042
:102870006032D25503A5C51683C55529EF70402E89
:102880005255230C05285255A30B05284255BD650A
:10289000938505A6231EB50842559965938505DCE9
:1028A000231FB5087255EFE00FEE5255032585162C
:1028B000E255EF308004525503258516A528525560
:1028C0002310852A525593850105232AB5185255A0
:1028D0009385010E2328B5187255E255EFD03F912C
:1028E00036644649D6446644F64025618280797153
:1028F0002AD62ED42AD20CC54561828079712AD677
:102900002AF42AD208E14561828079712AD62AF414
:102910002AD208E54561828079712AD62AF42AD222
:1029200048E54561828079712AD62AF42AD208E9DD
:1029300045618280797106D62AD42AD20841914510
:10294000EF00F069125548419145EF00506912556A
:1029500008459145EF00B0681255230E0502B250AC
:1029600045618280197186DEA2DCA6DACAD8CED68D
:10297000D2D4D6D2A2F0A6EE2ADC2EDA2AD883252B
:1029800005162ED6EF00C073425532560325851624
:102990008355660A0356860AEF40E05452551DC51A
:1029A000525585456313B50A0964130504808945AA
:1029B0001306E07EEF000076130404C08945130679
:1029C000007E2285EF0000758D4515A00964130572
:1029D00004801306E07E8145EF00C073130404C039
:1029E0001306007E22858145EF00C07285451306DF
:1029F000707D2285EF0000724255B7E5FD448D15CC
:102A0000232AB5204255B725FC4493852585232CE0
:102A1000B5204255B705FB44938595FC232EB52080
:102A20004255B785FF3E9385959F2320B522425599
:102A3000B7B5FE3E938555DC2322B5224255B73506
:102A4000003F938585DE2324B52242550345E529C1
:102A500005896302055237857F3F1305E5CF2AD4E8
:102A60004255B705033B9385851A2ED20720C52210
:102A700087A0816B53F0001802F013052003970024
:102A8000A1FFE780A08152551DC1525585456310B5
:102A9000B50409641305048089450146A52D130476
:102AA00004C0894522850146B5258D4531A80964B4
:102AB0001305048081450146B12D130404C022850D
:102AC00081450146812D854522850146A125425536
:102AD000072045218720C52253701010272A052082
:102AE0004255072085218720C52253701010272CBE
:102AF000052042550720C5218720C522537010109C
:102B0000272E05204255232C05224255232E05222F
:102B10004255232005244255832585161305852318
:102B2000AECCAACAAEC88841EF00B058537015D0D9
:102B300007A4C16E87A4016F82E62315010409442E
:102B4000A1A08355A104464513962500D64632958B
:102B500008418605B69503D6C5008145EF00F057BC
:102B60008355A104464513962500D6463295084163
:102B70008605B69503D6C500A145EF00105603158E
:102B8000A10405052315A1040355A1046343A4066C
:102B90000355A104D645131625002E9607200600DE
:102BA0005310002082E25310802853009028B66012
:102BB00082E05370900002FE53701010531600C054
:102BC00006052E952316C5000355A104D645060516
:102BD0002E950355C50083D56501E354B5F65645DA
:102BE0008355A1040316650186052E952316C5009D
:102BF00089BF425503258516A12B231201042165A7
:102C00009309F5CF0965130405C01309059407A4BA
:102C1000816B054A930405D4930A007D11A842559F
:102C20000325851635230315410405052312A10448
:102C30000355410463C4A92822858145B52B22850B
:102C4000814555236DDD525571C15255631C45199F
:102C500042551305851FAACCD2CA63100A0C8545BC
:102C60004A85EF00F05CE645537015D082E887A0F6
:102C700045035370101027A2050085452685EF00F7
:102C8000305BE645537015D082E887A0450353704A
:102C9000101027A405008D452685EF007059E645E4
:102CA000537015D082E887A045035370101027A6F3
:102CB00005008D454A85EF00B057E645537015D0A5
:102CC00082E887A085035370101027A8050095455A
:102CD0002685EF00F055E645537015D082E887A0B1
:102CE00085035370101027AA050095454A85EF000B
:102CF0003054E645537015D082E887A085035370A1
:102D0000101027AC05009D452685C9A04255130526
:102D1000851FAACC82CAE30400F456456314450D0E
:102D20009D454A85EF00D050E645537015D082E8A6
:102D300087A045035370101027A20500A5452685DE
:102D4000EF00104FE645537015D082E887A0450389
:102D50005370101027A40500AD452685EF00504D97
:102D6000E645537015D082E887A0450353701010D4
:102D700027A60500A5454A85EF00904BE645537010
:102D800015D082E887A085035370101027A805008E
:102D9000AD454A85EF00D049E645537015D082E82D
:102DA00087A085035370101027AA0500B545268516
:102DB000EF001048E645537015D082E887A08503E0
:102DC0005370101027AC0500B5454A85EF005046FA
:102DD000E645537015D082E887A0C50353701010E4
:102DE00027A0050003554104E34B55E342552270EB
:102DF000872045210721C51F927153701010D37091
:102E0000311053701000272A052042552270872068
:102E1000852107210520927153701010D370311055
:102E200053701000272C0520425522708720C521A1
:102E300007214520927153701010D37031105370D8
:102E40001000272E052042550720851F53700418B7
:102E500082E6A27007210522872185201272D3F015
:102E60002010537030105370401053F00000272092
:102E70000522425522708720452236618721C520D0
:102E8000127253701010D3703110D3F04010537081
:102E900010002722052242552270872085223661A4
:102EA00087210521127253701010D3703110D3F0A6
:102EB00040105370100027240522B5B34255032556
:102EC0008516EFF03FA74255230F052842550720EE
:102ED0004521827053701010272A05204255072083
:102EE0008521827053701010272C05204255072031
:102EF000C521827053701010272E0520525521C114
:102F0000525585456319B50642550720452153168C
:102F100010C00964130504808945ED2A4255072035
:102F20008521531610C0130404C089452285DD2273
:102F300042550720C521531610C08D451DA8425586
:102F400007204521531610C00964130504808145EC
:102F5000D122425507208521531610C0130404C006
:102F600022858145452A42550720C521531610C0A8
:102F7000854522854522525509C55255854563161A
:102F8000B51242550720452187A0C16B3165D39505
:102F900000A07D1589E9C25507A0452187A0016CD5
:102FA000D31510A089C9C25503D6E51E698E916656
:102FB000558E2397C51EC25507A0852187A0416C59
:102FC000D39500A089E9C25507A0852187A0816C0F
:102FD000D31510A089C9C25503D6E51E698E916626
:102FE000558E2397C51EC25507A0C52187A0C16C69
:102FF000D39500A089E9C25507A0C52187A0016D1E
:10300000D31510A089C9C25503D6E51E718D11666E
:10301000518D2397A51E42550720052287A0416D9B
:10302000A165539600A01385F5FF09EA42560720D3
:10303000062287A0816D531610A001CA42568356FE
:10304000E61EE98ED58D2317B61EC25507A0452270
:1030500087A0C16DD39500A089E9C25507A045227C
:1030600087A0016ED31510A089C9C25503D6E51EED
:10307000698EA166558E2397C51EC25507A085226D
:1030800087A0416ED39500A089E9C25507A085228B
:1030900087A0816ED31510A089C9C25503D6E51E3D
:1030A000718D2166518D2397A51EF6640674965A7C
:1030B000265AB6594659D6546654F650096182804C
:1030C00079712AD6032505162AD40720450702F26E
:1030D00087200507539500A009C52255072005073D
:1030E00002F2225512708720850753701010D315F5
:1030F00000C02311B102056613060680B2952313A2
:10310000B50A03152102A2553305A6402394A50A4A
:1031100045618280397106DE2ADC2EDA32D8EF0072
:10312000207709E937A56000130515E7930580614D
:10313000EF60E0615255E1453305B502E255425674
:103140001305C50A2AD62E9510C1F250216182803E
:10315000797106D62AD42AD24845EF00407E12550E
:103160004845EF00F00012550849EF00407D125528
:103170000849EF00E07F12554849EF00407C1255A6
:103180004849EF00E07E125508419305E007EF0043
:103190005001125548419305E007EF009000125589
:1031A00008459305E007EF00C07F12558545230EC3
:1031B000B502B25045618280797106D62AD42ED2EA
:1031C000C12D09E937A56000130515E79305703097
:1031D000EF60E0571255A25505463315A60088C981
:1031E000B25045618280797106D62AD42ED24D25FF
:1031F00009E937A56000130515E79305702EEF6008
:1032000000552255484592553355B5000589B250B1
:10321000456182805D7186C6A2E42ADA2AD88325B8
:1032200005162ED6832545162ED403258516AAC24B
:10323000AAC00345C503058909C54255032585165E
:10324000792142558315E51E0316451FD18D231A9A
:10325000B51E42558315E51E0316251FF18D231853
:10326000B51E42553256032585168355660A035608
:10327000860AEF30504742550345A529058929C9DB
:1032800042550355051F35C542550345B5290589E6
:1032900079C94255A30D0528425585452328B526F1
:1032A00032550315250AC2552394A51E4255831590
:1032B000A51E85052315B51E42550345952905898B
:1032C00071ED4255230D052842552314051EF9A022
:1032D00042550345B529058979C55255EFE02FE6DA
:1032E00042550345552A058945C142552314051EFB
:1032F0005DA842550345B529058955E54255035555
:10330000851E55E1425503452529058929C94255A0
:10331000230E052842552301052A4255232005285E
:103320004255A304052A42552305052A22550720A4
:10333000C5064255272205002255230A051C737035
:1033400004300100C25503A5C51683A54516EF60DC
:10335000E05A736004300100425523090528525594
:10336000EFE02FD789A042550355851E05E9425548
:10337000B2550355A51E83D5450A635EB500425577
:1033800085452306B52A19A832550315050AC255E5
:103390002394A51E09A84255230D0528425503254F
:1033A0008516EFF02FD92255085901E9C25503A51A
:1033B000C51683C55529EF60A07A42550345C52A35
:1033C000058911CD4255032585161D2E425583557D
:1033D000E51EBD892317B51E42552306052A425511
:1033E0000345B529058931C9425503258516AAC269
:1033F000AAC00345C503058919ED42550325C51625
:10340000EF60C05742550325C516EF6080584255FE
:1034100003258516353B42550345C52905890DC150
:10342000425507204500530400F0531504A0630CD7
:1034300005104255B705803F11AA5255EFD0DF9DC8
:1034400042550325C516EF60407019C54255032546
:103450008516EFF02FCE31A042550325C516EF603B
:10346000D00C42550325C516EF60A06819C542551A
:1034700003258516EFF00FCCADA8425523000104BB
:103480000325C516EF60C0574255AAE20345C5297A
:10349000058919C542550325C516530500F029A015
:1034A00042550325C5161665EF6090092300A10457
:1034B00003450104058915CD42550325C516EF6066
:1034C000C07E42550345C529058911ED42570325A4
:1034D000C716832547160326471883268718032710
:1034E000C718EF60E07D22550345451D058963043B
:1034F000051642550325C516EF60C063C255238EDD
:10350000A52842550345C529058905C542550345EA
:10351000252A058901C942550355052A19E952553D
:103520003D2401A8425585452301B52A5255EFD0C7
:103530009FA55255EFE02FC45255EFE0EFD026641F
:10354000B640616182804255B70580BF0CC1C2554B
:1035500003A5C51683C5D529EF602062C25503A512
:10356000C51683C53529EF602066C25503A58519A8
:10357000C861EFF0AFB842550720C500872045016C
:1035800053200020539500A041C54255A255072065
:10359000850287A005120325851953751018EFF0D1
:1035A0008FB842550720C50603254518D3100020C3
:1035B000AAC286E002FE2ADC272C15007270625532
:1035C000272E0500C25503A5C51983A50528EFF0D0
:1035D0000FB242550325C5269545E363B5E642552E
:1035E000831585258505231CB524425583558525DE
:1035F0000355E525E396A5E442552328050A4255DF
:1036000099452326B526425591452328B5260DBD5B
:103610004255A2550720C50287A00512032585192A
:1036200053751018EFF02FB0425507208500530551
:1036300004A042550720850603254518D310002015
:10364000AAC286E002FE2ADC272C150072706255A1
:10365000272E0500F5B342550325C516EF60204C13
:1036600019ED42550325C516EF60C04CE30305E88C
:1036700042550325C516EF602049E30C05E6425587
:103680000325C516EF60004B05C942558545230E3D
:10369000B5284255A30D05284255230D052822556E
:1036A000230AB51C42550325C516EF60C0274255B5
:1036B0000325C516EF60802822550859E31B05E253
:1036C0004255A30D05284255230D05281DB5397116
:1036D00006DE22DC2ADA2AD82317010208417926DD
:1036E000C255CC412A842E855126C2558C45498C21
:1036F0002E85AD2E418D71896254F25021618280F8
:10370000797106D62AD42AD24845152C1255484537
:10371000852412550849252412550849912C125523
:103720004849312C12554849A124125508419305A6
:10373000E007852C125548419305E0079D2412555A
:1037400008459305E007B12CB2504561828039717C
:103750002AD62AD4832505162ED2032505278D4582
:10376000636DB50622550345C52905893DC522551A
:1037700092550325851807A0850287A0C5022ADE79
:1037800002FC06FA2AD8272005005270425527224B
:103790000500225592550325C51807A0050387A0EB
:1037A00045032ADE02FC06FA2AD8272005005270BB
:1037B000425527220500225592550325451807A09A
:1037C000050287A045022ADE02FC06FA2AD8272035
:1037D00005005270425527220500216182807971CF
:1037E00006D62AD42ED2B92011E937A560001305D8
:1037F000C5D885659385D52CEF507075035541026A
:10380000137515F811C937A560001305C5D885656E
:103810009385E52CEF50B07373E0107C22559255E0
:103820000326C526D18D2326B52673F0107CB25011
:10383000456182807971AA852AD629660545638704
:10384000C504B255130606406382C5043256AD6501
:1038500093860580630CD6023256938505C06307B4
:10386000B6023256AD656303B60232569385054003
:10387000630EB6003256B165938605806308D600A4
:103880003255938505C02D8D133515004561828015
:103890007971AA852AD6096693060680054563884C
:1038A000D5003255930506C02D8D133515004561A1
:1038B0008280797106D62AD4B53F11E937A5600018
:1038C0001305C5D8856593859594EF5050682255AA
:1038D0000325C518B25045618280397106DE2ADCA5
:1038E0002EDA32D8813F11E937A560001305C5D81B
:1038F0008565938545A2EF50906552559305851ACD
:103900002ED609C55255A1456313B5026255B2556D
:103910002E950841C165FD154256E25632576D8D10
:10392000931506014D8DB385E60088C131A062551F
:10393000B25542562E9510C1F250216182807971A4
:1039400006D62AD4552809E937A56000130545DCB9
:103950009305502EEF50B05F73E0107C22554C451C
:1039600093E525004CC573F0107CB2504561828010
:10397000797106D62AD4492009E937A560001305D4
:1039800045DC93053030EF50905C73E0107C22559D
:103990004C4593E505204CC573F0107CB250456151
:1039A0008280797106D62AD42ED2693511E937A5DD
:1039B00060001305C5D885659385B525EF5030594E
:1039C000125593050008636BB50037A56000130519
:1039D000C5D885659385C525EF50705773E0107C79
:1039E000225592550326C525D18D232EB52473F07B
:1039F000107CB250456182807971AA852AD63966D9
:103A00009306068005456383D502B25513060688E2
:103A1000638EC5003256B965938605906308D6005B
:103A20003255938505982D8D13351500456182809B
:103A3000797106D62AD40966930606942ED2630FAE
:103A4000D5002255930506D4630AB50037A560005A
:103A5000130515E79305A036EF50704F1255A25588
:103A60000A052E950841B25045618280797106D6CB
:103A70002AD4EFF03FDC11E937A560001305C5D863
:103A800085659385851CEF50904C22550325C524F0
:103A90001375F507B2504561828079712AD6956514
:103AA00023A2A5104561828079712AD62AD40861A3
:103AB0004561828079712AD62AD40869456182805D
:103AC00079712AD62AD408654561828079712AD60F
:103AD0002AD448654561828079712AD62AF42AD28F
:103AE00008E14561828079712AD62AD4086145614E
:103AF000828079712AD62AD40845456182807971FD
:103B000006D62AD42AD23920125521281255B2506D
:103B10004561828079712AD62AD423060500456141
:103B2000828079712AD62AD4A30605004561828055
:103B3000397106DE22DC26DA4AD82AD62AD42312A4
:103B400001020845854545202255084585456128DF
:103B500023130102231201021165791583554102D5
:103B6000634CB50001008315410285052312B102A3
:103B700083554102E358B5FE41651304F5FF9304F4
:103B8000803E0549325581457D20937505400145AC
:103B900089C5035561021325853E11CD03156102C8
:103BA0000505B37585002313A102E3CD95FC2255CD
:103BB000A3062501C1BF2312010221657915835592
:103BC0004102634CB50001008315410285052312B3
:103BD000B10283554102E358B5FE4259D2546254B2
:103BE000F25021618280397106DE2ADC2EDA4D29FD
:103BF00009E937A560001305D5DF9305201CEF50B8
:103C00001035625593551500C199374603001306C8
:103C100006E0B29552562ED885453395A5002AD692
:103C200009C63255C255C8C121A03255C25588C5F2
:103C3000F250216182805D7186C6A2C4A6C2AAC06C
:103C40002EDE2ADC231901022317010202D40545C6
:103C50000146D92A231BA102231A01021D458355BF
:103C60004103634CB5000100831541038505231A08
:103C7000B10283554103E358B5FE62550841D9228C
:103C800062550841DD2A231A01027D45835541030F
:103C9000634CB5000100831541038505231AB10269
:103CA00083554103E358B5FE6255084183556103CE
:103CB000FD2A41651304F5FF8544225515E162553F
:103CC00008410D242AD40315E1020505B3758500CA
:103CD0002317A102E3C385FE625523069500F1BFB9
:103CE00041657D152317A102231A01021305F00F68
:103CF00083554103634CB5000100831541038505DD
:103D0000231AB10283554103E358B5FE62550841B9
:103D100009242318A102035501031375F57F964466
:103D20002644B6406161828079712AD62ED42AD287
:103D30000CC14561828079712AD62ED42AD24CC119
:103D40004561828079712AD62ED42AD20CC545616C
:103D50008280397106DE22DC2ADA2ED8239E050005
:103D60004255231005024255A30105024255231D69
:103D700005004255231F0500425523010502425507
:103D8000A30C05004255230C0500525502D681456F
:103D90005D35C2552315A1022390A5005255056437
:103DA000930504802ED6EFF01FE9C2552315A1021A
:103DB0002391A500525522D68565EFF0DFE7C25565
:103DC0002315A1022392A50052550964930504808E
:103DD0002ED6EFF05FE6C2552315A1022394A5006D
:103DE000525522D68965EFF01FE5C2552315A10271
:103DF0002396A50052550D64930504802ED6EFF04E
:103E00009FE3C2552315A1022398A500525522D63F
:103E10008D65EFF05FE2C2552315A102239AA5003C
:103E20006254F2502161828079712AD62ED44D8D50
:103E30009375F67F4D8DC165FD156D8D2313C10200
:103E400045618280797106D62AD4412409E937A5D3
:103E50006000130585EA9305B023EF50500F2255FB
:103E60004C5179767D16F18D4CD122554C51096615
:103E7000D18D4CD1B25045618280797106D62AD459
:103E8000A92409E937A56000130585EA9305B01E4A
:103E9000EF50F00B22550C511966D18D0CD12255E3
:103EA0004C510966D18D4CD1B250456182807971F7
:103EB00006D62AD42313B102092C09E937A56000DC
:103EC000130585EA9305B038EF5070082255084570
:103ED0001375050265FD03556102A25588CDB250E8
:103EE00045618280797106D62AD4C52209E937A5B1
:103EF0006000130585EA9305D02BEF50500522553D
:103F000048518965938505F06D8D2181B2504561D9
:103F10008280797106D62AD44D2A09E937A5600036
:103F2000130585EA9305B031EF50700222554849D8
:103F3000C165FD156D8DB25045618280397106DE17
:103F40002ADC2EDA2319C1022AD60145EFF0DFED73
:103F50002315A102231401021D4583558102634CE0
:103F6000B50001008315810285052314B102835534
:103F70008102E358B5FE32550841EFF0BFEC3255EF
:103F80000841E53D231401021305F0038355810226
:103F9000634CB50001008315810285052314B1022D
:103FA00083558102E358B5FE325508418355A1027D
:103FB000FD3D231401021305F00F83558102634C6C
:103FC000B50001008315810285052314B1028355D4
:103FD0008102E358B5FEF25021618280397106DE1C
:103FE00022DC2ADA2ED803C58501058951C1425544
:103FF00085652ED683554500525513F6F57F23155A
:10400000C1028565253F42550964930504802ED67B
:104010000356850052551376F67F2315C102393FAA
:10402000425522D68355C500525513F6F57F231508
:10403000C1028965213742550D64930504802ED64F
:104040000356050152551376F67F2315C102EFF092
:10405000FFEE425522D683554501525513F6F57FA2
:104060002315C1028D65EFF07FED4255230C05004D
:10407000425503452502058905C142558355A501D1
:10408000AE052ED60356E50152552315C102EFF0B9
:10409000FFEA4255230105026254F25021618280F9
:1040A0007971AA852AD61306C003054563EAC500BF
:1040B00032559305000E6367B50032551335850FF1
:1040C000456182800145456182807971AA852AD641
:1040D000396605456388C5003255930506082D8D60
:1040E0001335150045618280797106D6EFC04F8F78
:1040F000218913351500B25045618280011173E0AA
:10410000107C37950300832505E593E58506232874
:10411000B5E473F0107C05618280797106D62AD4EB
:1041200005450D203705220013053510EF40006AC4
:104130000965130505C0814529280545AD20B25004
:104140004561828079712AD6956523A2A5104561C3
:104150008280397106DE2ADC2EDAEF20D06209E98E
:1041600037A56000130515E793050069EF50205E41
:104170005255E25513161500719AB295F1052ED8D5
:1041800005890E052AD673E0107C4255B2551041C0
:1041900093060002B395B600D18D0CC173F0107C6C
:1041A000F2502161828079712AD6B715100003A6DA
:1041B00005C1518D23A8A5C04561828079712AD699
:1041C00045618280797106D62AD42120B25045619A
:1041D0008280797106D6EFC02F81218913351500B1
:1041E000B25045618280797106D62AD42AD22AD06B
:1041F000EFF0DFF0025589651386058010C1025586
:10420000138605C050C102551386059410C502558A
:10421000938505D44CC50255B745030093850540E9
:104220004CCD025599654CD10255B7550300938585
:1042300005800CD502558D654CD90255138605189D
:1042400010DD02551386052050DD02551386052822
:1042500030C10255938505306CC1025595650CC976
:1042600002551386050150C90255938505020CCDF0
:104270001255B25045618280397106DE22DC2AD89F
:104280001305F0032ED66364B50002DA99A84255EF
:104290002AD42AD2A9650CC11255938505404CC178
:1042A0001255AD65938505800CC51255396493058B
:1042B00004804CC512551306049010C912554CC900
:1042C000125513050502EFF09F839255C8CD125584
:1042D00000CD1255F5450CD91255ED454CD9225556
:1042E0002ADA05452AD052556254F2502161828063
:1042F000397106DE22DC2AD81305F0032ED663645A
:10430000B50002DAB1A842552AD42AD2B165938504
:1043100005800CC11255AD65138605C050C11255FC
:104320000CC512553964930504804CC5125513060B
:10433000049010C912554CC9125513050502EFF02F
:104340000FFC9255C8CD1255930504080CCD12559B
:10435000E1450CD912559305E0024CD922552ADAD1
:1043600005452AD052556254F250216182807971FC
:1043700006D62AD4EFF05FD72255352022553129B1
:10438000225507A58171EF00A0652255EF00C06E90
:104390002255EF00C0712255EF00C077EF001002E8
:1043A000B250456182805D7186C6A2C4A6C2CAC0F1
:1043B0004EDE52DC56DA5AD85ED62AD437040C00C8
:1043C00013051400EF40C00F85450145EF30D07B49
:1043D00001458145EF40200413051420EF40400EB5
:1043E00005458545EF30507A05458145EF40A002EF
:1043F00013051440EF40C00C09458545EF30D078D7
:1044000009458145EF40200113051460EF40400B42
:104410000D458545EF3050770D458145EF30B07F34
:1044200037140C0013051480EF40800911458545B1
:10443000EF30907511458145EF30F07DB7290C00C4
:104440001385D9E0EF40C0073D458545EF30D07377
:104450003D458145EF30307C13851980EF404006A3
:1044600031458545EF30507231458145EF30B07AA6
:10447000138519A0EF40C00435458545EF30D07055
:1044800035458145EF303079130514C0EF404003C6
:1044900019458545EF30506F19458145EF30B077AC
:1044A000130514E0EF40C0011D458545EF30D06D88
:1044B0001D458145EF30307637091000130559004E
:1044C000EF40000041458545EF30106C4145814586
:1044D000EF30707413055920EF30907E45458545C7
:1044E000EF30906A45458145EF30F072B72A1000F1
:1044F00013850AA0EF30D07C75458545EF10B034A8
:1045000075458545EF30506875458145EF30B07091
:10451000B71B8C0013850B40EF30907A1305A00277
:104520008145EF3070661305A0028145EF30B06E13
:1045300037151000371A1000EF3090786145854527
:10454000EF10703061458545EF301064614581455D
:10455000EF30706C372B8C0013050BA0EF305076CA
:104560001305D0028545EF3030621305D002814536
:10457000EF30706A1305D0028145EF10D02CB704DC
:104580008C0013850440EF30B07313052002814581
:10459000EF30905F130520028145EF30D06713851F
:1045A0000B20EF30F071130590028145EF30D05DA4
:1045B000130590028145EF301066130574A0EF30AB
:1045C000307015458545EF30305C15458145EF303D
:1045D000906437150C00EF30B06E21458545EF1023
:1045E000902621458545EF30305A21458545EF30ED
:1045F000906213057420EF30B06C25458545EF308F
:10460000B05825458545EF30106113057440EF30F3
:10461000306B29458145EF30305729458545EF30CE
:10462000905F1305D460EF30B0692D458545EF30BC
:10463000B0552D458545EF30105E13853420EF30A1
:104640003068130510028545EF3010541305100231
:104650008145EF30505C37058C00EF3070661305F4
:1046600000028545EF10301E130500028545EF302E
:10467000B051130500028545EF30F05913056AC0AB
:10468000EF30106459458545EF3010505945854548
:10469000EF30705813853AE0EF3090627D458145E8
:1046A000EF30904E7D458545EF30F05613853AC08A
:1046B000EF30106179458545EF30104D79458545DE
:1046C000EF30705513050B80EF30905F1305C0027B
:1046D0008145EF30704B1305C0028145EF30B05378
:1046E00013850BA0EF30D05D130550028145EF30EC
:1046F000B049130550028145EF30F05113850B602E
:10470000EF30105C1305B0028145EF30F047130520
:10471000B0028145EF303050138509C0EF30505A58
:1047200039458145EF30504639458145EF30B04E2F
:1047300013050A20EF30D05865458145EF30D0444D
:1047400065458145EF30304D13050A40EF30505735
:104750001305B0028145EF3030431305B0028145A7
:10476000EF30704B13050960EF3090554D4585458E
:10477000EF10700D4D458545EF3010414D45814599
:10478000EF307049B25B425BD25A625AF259064925
:1047900096442644B64061618280397106DE22DC8F
:1047A00026DA2AD82AD61305400697E0A0FFE7802C
:1047B000E0AEEF00D024096403250480A1654D8D8F
:1047C0002320A48073E0107C3795030085454CC1FD
:1047D00073F0107C377518001305159F97E0A0FF44
:1047E000E780C0AB325508419145EF00D0223255E9
:1047F00048419145EF003022325508419145EF0084
:104800003025325548419145EF00902432550841FA
:10481000C145EF00902732554841C145EF00F026D1
:1048200032550841EF00102A32554841EF009029D7
:104830001305047197E0A0FFE78040A6930404C02D
:104840001D4626858145EF00302B13040480154654
:10485000AD46214722858145EF003030854515461C
:10486000AD4621472285EF00502F1546914621473E
:1048700026858145EF00702E8545154691462147D6
:104880002685EF00902D894515469D4621472685B2
:10489000EF00B02C8D4515469D4621472685EF003B
:1048A000D02B89451546994621472285EF00F02AED
:1048B0008D451546994621472285EF00102A9145DE
:1048C0001546954621472685EF0030299545154622
:1048D000954621472685EF00502891451546894683
:1048E00021472285EF0070279545154689462147C7
:1048F0002285EF0090269945154699462147268541
:10490000EF00B0259D451546994621472685EF00C5
:10491000D02499454546A94621472285EF00F0233A
:104920009D454546A94621472285EF001023A14514
:104930004546A14621472685EF003022A54545463C
:10494000A14621472685EF005021A9454546B94695
:1049500021472685EF007020AD454546B9462147E1
:104960002685EF00901FA1454546954621472285A3
:10497000EF00B01EA5454546954621472285EF002C
:10498000D01DA94545469D4621472285EF00F01CD4
:10499000AD4545469D4621472285EF00101CB14597
:1049A0004546AD4621472685EF00301BB5454546B7
:1049B000AD4621472685EF00501AB145454685464C
:1049C00021472285EF007019B545454685462147A8
:1049D0002285EF009018D2546254F25021618280F7
:1049E000397106DE22DC07A0C1712ADA2AF82AD63C
:1049F0005370A018D31510C02ED408498145EF205C
:104A0000204132550849856513840580A285EF3021
:104A1000100632550849A255EF2000423255084988
:104A2000EF2000443255084D8145EF20603E32555D
:104A3000084DA285EF30B0033255084DFD55EF20EB
:104A4000A03F3255084DEF20A041325548498145DD
:104A5000EF20003C32554849A285EF3050013255D5
:104A60004849FD55EF20403D32554849EF20403F31
:104A70006254F25021618280797106D62AD42AD2FA
:104A8000084D8145EF20C0381255084D8565938546
:104A90000580EF30C07D1255084DFD55EF20C0391F
:104AA0001255084DEF20C03BB250456182807971AC
:104AB00006D62AD42AD2484DEF10707F1255484DA1
:104AC000B7656202938505A00966130606589D46E0
:104AD000EF30D0591255484DEF20A0001255484DE7
:104AE000EF2080031255484DEF2060061255484DC7
:104AF000E145EF30B0671255484DEF20A008125540
:104B0000484DEF20000C1255484DEF10507AB2502E
:104B100045618280797106D62AD42AD20855EF20C1
:104B2000E00C12550855B77589099385058037261D
:104B30000600130606A88546EF30501F125508558B
:104B400093050060EF20200D1255085593050005D0
:104B5000EF20800F12550855EF20201312550855ED
:104B60008145EF202015125508558945EF20801703
:104B7000125508558145EF206019125508559305C7
:104B80003022EF30502912550855EF20401B1255A6
:104B9000085509468145EF20C01D125508558D4521
:104BA000EF30D02D125508559165EF208020125519
:104BB0000855EF204023B25045618280797106D6B6
:104BC000EF20E02D0545EF20202FB2504561828077
:104BD000797106D62AD42ED232D083C5E50025209D
:104BE0009255225583C5F500052822558255352852
:104BF0002255825565262255A12B225582554D2BD3
:104C0000B2504561828079712AD62315B1022AD229
:104C1000231CB5024561828079712AD62315B10221
:104C20002AD2231DB502456182805D7186C6A2C469
:104C3000A6C2AAC02EDE2ADC231B01020545231AC8
:104C4000A1022319A1022318A10299C9F255639563
:104C5000A50205651305554D231BA102054531A08D
:104C600085659385554D231BB102231AA102214569
:104C70002319A1022318A102056513050520EF10D1
:104C80008045625508419145EF1000496255484101
:104C90009145EF106048625508459145EF10C047B7
:104CA00023170102894441651304F5FF0355E1020E
:104CB00063CFA4200355E102E2550A052E95084171
:104CC0008945EF10E04A0355E102E2550A052E95A9
:104CD0000841EF10004D0355E102E2550A052E95FB
:104CE00008418545EF10804E0355E102E2550A0563
:104CF0002E9508418545EF1000510355E102E2551C
:104D00000A052E95084181450146EF106054035570
:104D1000E102E2550A052E9508418545EF108057BE
:104D20000355E102E2550A052E9508418945EF3009
:104D3000C0590355E102E2550A052E950841814507
:104D4000EF1060590355E102E2550A052E9508411E
:104D50008145EF10405C0355E102E2550A052E95AE
:104D600008418145EF10C05D0355E102E2550A0597
:104D70002E95084181450146EF10605F0355E10221
:104D8000E2550A052E950841A1450146EF10205E27
:104D90000355E102E2550A052E950841D145014629
:104DA000EF10E05C0355E102E2550A052E9508413B
:104DB000F1450146EF10A05B0355E102E2550A05FB
:104DC0002E950841094691468145EF1080630355B1
:104DD000E102E2550A052E950841094689468145BA
:104DE000EF1020620355E102E2550A052E950841B5
:104DF000054699468145EF10C0600355E102E25532
:104E00000A052E950841054681458146EF10605FF1
:104E10000355E102E2550A052E95084185450546F0
:104E2000EF1060660355E102E2550A052E95084130
:104E300005468145EF1020650355E102E2550A055C
:104E40002E9508418145EF1080690355E102E25536
:104E50000A052E95084185450146EF10806D0355E2
:104E6000E102E2550A052E95084105468145EF10FD
:104E7000406C0355E102E2550A052E950841835521
:104E80002103EF1000700355E102E2550A052E954B
:104E9000084183550103EF1020730355E102E255E9
:104EA0000A052E950841EF1080760355E102E25580
:104EB0000A052E950841A285EF1020780315E1021E
:104EC00005052317A1020355E102E3D5A4DE6255CF
:104ED00008418545EF10407A62550841EF105007B0
:104EE0006255084129468145EF10B00962550841D5
:104EF0008145EF10701C03554103C145634BB5005C
:104F000062550841BD45EF10901F625508413D466E
:104F100005A803554103635DA00062550841835510
:104F20004103EF10D01D625508410356410309A803
:104F3000625508418545EF10901C625508410546B1
:104F40008145EF10D02162550841EF10702962555C
:104F500008418145EF10D02B62550841835561030C
:104F6000EF10003E6255484183556103EF10403D0C
:104F70006255084583556103EF10803C6255084136
:104F8000D1452946EF10702C056513050520EF105B
:104F9000A01096442644B64061618280397106DED5
:104FA00022DC2ADA2ED82AD6231501022314010284
:104FB000A1C1425585456318B5060565130505E091
:104FC0002315A102130500202314A1020D458D45D0
:104FD000FD2E0D458D45892125458145CD2E254543
:104FE00081451D290D458145DD260D4581451DA8BD
:104FF0000565130505E02315A10213050020231400
:10500000A10285450145E126854501453121194526
:105010009145752E1945914501218D450145452E36
:105020008D450145D52E2313010209440355610224
:10503000634CA41003556102B2550A052E954845EC
:105040000D2103556102B2550A052E95484581454B
:10505000812903556102B2550A052E9548458145BF
:10506000B52903556102B2550A052E9548459305A9
:1050700080027D2103556102B2550A052E954845EF
:105080009305A002E12903556102B2550A052E9548
:1050900048459305000213060002F946EF30E0038D
:1050A00003556102B2550A052E954845D529035589
:1050B0006102B2550A052E95484593050002130674
:1050C0000002F946EF30A00F03556102B2550A0500
:1050D0002E954845012303556102B2550A052E95C8
:1050E00048458545152303556102B2550A052E959D
:1050F00048458145AD2303556102B2550A052E95F9
:1051000048458355A102512B03556102B2550A054A
:105110002E95484583558102C92303556102B25536
:105120000A052E954845D52B03556102B2550A054F
:105130002E954845292D0315610205052313A1026B
:1051400003556102E358A4EE6254F250216182805B
:10515000797106D62AD42AD2084DA5251255084DB4
:10516000B7656202938505A037260600130706A8D7
:105170009946C1470146EF30500A1255084D852D1A
:105180001255084DC145492D1255084DC9251255D6
:10519000084DC145EF00006F1255084DA145EF3095
:1051A000F0171255084DEF008072B25045618280B1
:1051B000797106D62AD42ED22AD0504D0C4D328584
:1051C000EFE09FB6125519CD125585456316B5020D
:1051D0000255484D93050002EFE0FFB50255484DDA
:1051E000E14509A80255484DA145EFE0DFB402555D
:1051F000484DF545EFE01FB5B25045618280011181
:1052000073E0107C379503000C41F9990CC173F0E1
:10521000107C05618280797106D62AD42ED2EF10D7
:10522000905609E937A56000130515E79305E018C6
:10523000EF40E05173E0107C2255484192552256D0
:1052400041994D8D48C273F0107CB2504561828007
:10525000797106D62AD42ED2EF10F05209E937A57B
:105260006000130515E793057022EF40404E73E090
:10527000107C22550841925522566D994D8D08C2D9
:1052800073F0107CB25045618280797106D62AD4C1
:105290002ED2EF10504F09E937A56000130515E72E
:1052A0009305A041EF40A04A73E0107C225548517D
:1052B0009255225601994D8D48D273F0107CB25010
:1052C00045618280797106D62AD4EF10D04B09E966
:1052D00037A56000130515E79305A026EF4020478A
:1052E00073E0107C22550C4193E505080CC173F066
:1052F000107CB25045618280397106DE2ADC2EDADC
:1053000032D8EF10504809E937A56000130515E7BA
:105310009305006FEF40A0435255E2551316150058
:10532000719AB295F1052ED605890E052AD473E03F
:10533000107C32550841A2553D463316B600C25680
:105340001346F6FF3257718DB395B6004D8D08C3E5
:1053500073F0107CF25021618280397106DE2ADC04
:105360002EDA32D836D63AD4EF10F04109E937A513
:105370006000130515E79305501CEF40403D225592
:1053800011C5225593051020636AB50037A560004A
:10539000130515E79305601CEF40603B5255E2553D
:1053A0000A052E95130505042AD273E0107C3255A8
:1053B000C2553E052256D20592564D8D9305F6FFF5
:1053C0004D8D88C273F0107CF2502161828079711A
:1053D00006D62AD415452ED263EAA50037A560006B
:1053E0001305F5ED9305101BEF40603673E0107C5C
:1053F000379503004C4522569D461257B396C6007A
:1054000093C6F6FFF58D3316C700D18D4CC573F0EA
:10541000107CB25045618280797106D62AD4154538
:105420002ED263EAA50037A560001305F5ED9305BC
:10543000501DEF40C03173E0107C379503000C49DC
:1054400022569D461257B396C60093C6F6FFF58DB9
:105450003316C700D18D0CC973F0107CB250456172
:105460008280797106D62AD4EF10103409E937A565
:105470006000130545DC9305000EEF40402D73E0FE
:10548000107C22550C412166D18D0CC122554C4116
:1054900093E585004CC173F0107CB2504561828069
:1054A000797106D62AD42ED2EF10103009E937A52B
:1054B0006000130545DC9305C012EF40402973E0FE
:1054C000107C22550841925522561375C5FB4D8D0F
:1054D00008C273F0107CB25045618280797106D6A3
:1054E0002AD42ED2EF10502C09E937A560001305FD
:1054F00045DC9305A015EF40802573E0107C225514
:105500000841F17512569385F5CFA2566D8D93150E
:1055100086004D8D88C273F0107CB2504561828048
:10552000797106D62AD42ED2EF10102809E937A5B2
:105530006000130545DC93059018EF40402173E0AF
:10554000107C2255084192552256137535FC4D8D1D
:1055500008C273F0107CB25045618280797106D622
:105560002AD42ED2EF10502409E937A56000130584
:1055700045DC9305A01BEF40801D73E0107C225595
:105580000841F17512569385F53FA2566D8D93151E
:1055900086004D8D88C273F0107CB25045618280C8
:1055A000797106D62AD4EF10302009E937A56000BA
:1055B000130545DC93050027EF40601973E0107C6C
:1055C00022552C452166D18D2CC573F0107CB2502C
:1055D00045618280797106D62AD4EF10F01C09E962
:1055E00037A56000130545DC93051029EF40201610
:1055F00073E0107C22552C412166D18D2CC173F0B3
:10560000107CB25045618280797106D62AD42ED2A0
:10561000EF10901909E937A56000130545DC9305E3
:10562000803EEF40C01212559D45636AB50037A514
:105630006000130545DC9305903EEF40401173E098
:10564000107C22554C41E1994CC122559255504154
:10565000D18D4CC173F0107CB2504561828079715C
:1056600006D62AD42ED2EF10301409E937A56000EF
:10567000130545DC93050021EF40600D73E0107CBD
:1056800022550849925522561375E5F54D8D08CAE5
:1056900073F0107CB25045618280797106D62AD4AD
:1056A0002ED2EF10701009E937A56000130545DC14
:1056B00093054023EF40A0091255318109C937A550
:1056C0006000130545DC93055023EF404008125558
:1056D000A255C8C9B25045618280797106D62AD4D4
:1056E0002ED2EF10700C09E937A56000130545DCD8
:1056F00093052025EF40A0051255318109C937A532
:105700006000130545DC93053025EF404004125539
:10571000A25588D9B25045618280797106D62AD4C3
:10572000EF10900809E937A56000130545DC9305E3
:10573000502EEF40C00173E0107C22554C4593E59C
:1057400025004CC573F0107CB250456182807971A0
:1057500006D62AD4EF10500509E937A560001305D5
:1057600045DC93053030EF30907E73E0107C22559D
:105770004C4593E505204CC573F0107CB250456153
:105780008280797106D62AD42AD2484DEFE04FBAEA
:10579000B25045618280797106D62AD42ED22AD0A1
:1057A000484DEFE0BF83B25045618280797106D6E3
:1057B0002AD42ED22AD0484DEFE0AFD9B25045615D
:1057C0008280797106D62AD4EF10900109E937A5B5
:1057D0006000130585EA9305C01BEF305077225512
:1057E0000C4193F5F5F70CC1B25045618280797197
:1057F00006D62AD4EF10C07E09E937A5600013054C
:1058000085EA93053042EF30907422550C41BD99E2
:105810000CC1B25045618280797106D62AD42ED24D
:10582000EF10007C09E937A56000130585EA9305B0
:105830008046EF30D071225548558355410222569B
:105840001375F5FC4D8D48D6B25045618280797153
:1058500006D62AD4EF10C07809E937A560001305F1
:1058600085EA9305B01EEF30906E22550C511966F3
:10587000D18D0CD122554C510966D18D4CD1B250ED
:1058800045618280797106D62AD42313B102EF10C4
:10589000207509E937A56000130585EA930560487E
:1058A000EF30F06A0355610293050010636AB5009A
:1058B00037A56000130585EA93057048EF3030691D
:1058C00003556102A25588D5B25045618280797135
:1058D00006D62AD4EF10C07009E937A56000130579
:1058E00085EA9305501AEF30906622550C4193E5F6
:1058F00005080CC1B25045618280397106DE22DC98
:105900002ADA2ED82AD6639E051C73E0107C371540
:10591000030023280540232A054073F0107C21450D
:105920008145EF30304F0565930515802145EF30F7
:10593000704E214593050020EF30D04D4165930511
:10594000F5FF214569262145CD457D263715030004
:10595000130620028145E1263715030081451D29E4
:105960002315010209440355A1026344A410035501
:10597000A102B2550A052E95084193050010B921E0
:105980000355A102B2550A052E950841930500045E
:1059900001469D290355A102B2550A052E950841DD
:1059A0009305000409468D210355A102B2550A054D
:1059B0002E9508410946814565290355A102B25536
:1059C0000A052E950841994511465D210355A1020E
:1059D000B2550A052E950841854681450146D521D7
:1059E0000355A102B2550A052E95084191458546F9
:1059F0000146C1290355A102B2550A052E95084159
:105A000085468145014625230355A102B2550A0565
:105A10002E950841914585460146112B0355A1025B
:105A2000B2550A052E95084191654D260355A102F0
:105A3000B2550A052E950841A165492E0355A102CC
:105A4000B2550A052E95084109468145812B03551B
:105A5000A102B2550A052E950841894509463D2BFC
:105A60000315A10205052315A1020355A102E35068
:105A7000A4F02315010209440355A1026344A404C0
:105A80000355A102B2550A052E954845EFF0FFC80F
:105A90000355A102B2550A052E954845EFF03FCBBC
:105AA0000355A102B2550A052E9508419305E0075A
:105AB0003D2B0315A10205052315A1020355A102E3
:105AC000E350A4FC325508419305E0070D233255FD
:105AD00048419305E007212B325508459305E0071F
:105AE0003923425585456310B51E73E0107C371588
