:0200000400609A
:040000006F0000018C
:1000100081400141814101428142014381430144C8
:100020008144014581450146814601478147014898
:10003000814801498149014A814A014B814B014C68
:10004000814C014D814D014E814E014F814FF9622E
:1000500073A002308542FE0263C3020001A0970232
:1000600000009382020973905230731030005300E5
:1000700000F0D30000F0530100F0D30100F0530270
:1000800000F0D30200F0530300F0D30300F0530458
:1000900000F0D30400F0530500F0D30500F0530640
:1000A00000F0D30600F0530700F0D30700F0530828
:1000B00000F0D30800F0530900F0D30900F0530A10
:1000C00000F0D30A00F0530B00F0D30B00F0530CF8
:1000D00000F0D30C00F0530D00F0D30D00F0530EE0
:1000E00000F0D30E00F0530F00F0D30F00F0970292
:1000F000000093822204739052309701A1FF9381F4
:10010000617017021A001302D2F3137202FC7325F6
:1001100040F185456370B500131615013292171131
:10012000A0FF130121EE6111EF70D055EF704079FF
:1001300002906D7106C20AC40EC612C816CA1ACC45
:100140001ECE22D026D22AD42ED632D836DA3ADCA7
:100150003EDEC2C0C6C2CAC4CEC6D2C8D6CADACC77
:10016000DECEE2D0E6D2EAD4EED6F2D8F6DAFADC87
:10017000FEDE73252034F32510340A86EF707044B8
:100180007310153489629382028073A0023092400A
:100190002241B2414242D2426243F243025492545B
:1001A0002255B2554256D2566257F25706489648E3
:1001B0002649B649464AD64A664BF64B065C965CDB
:1001C000265DB65D465ED65E665FF65F5161730082
:0201D0002030DD
:1001E0007375043082800000736504308280397139
:1001F0002ADC1305F00C2EDA6364B50002DE21A0C0
:1002000062552AD82ADE05452AD672552161828098
:1002100079712AD62315B1022314C1022313D10206
:100220002AD0231CB504031581028255239DA50401
:10023000031561028255239EA50445618280797170
:100240002AD62ED42AD207A0050187A0816C53702C
:1002500010102720050022550720051287A0C16C29
:10026000125553701018272205001255B7B52A3DB4
:100270009385B5AA2CC91255B715063F938525A9B4
:100280006CC522550720051287A0016D12555370C9
:100290001018D31510C00CD51255B70548424CC9DB
:1002A000125591452311B50612550D462312C50668
:1002B000125519462313C506125509462314C506BF
:1002C000125515462315C506125505462316C506B3
:1002D00012552317B50612552316050C4561828069
:1002E00079712AD62ED42AD22311010219458355B9
:1002F00021026346B5028355210222568A052E96B5
:10030000925607200600B69527A6050283152102FE
:1003100085052311B10283552102E35EB5FC4561D9
:100320008280397106DE2ADC0D45231BB102639DF4
:10033000A50037B5AA3E1305B5AA2AD837D5133F6D
:100340001305A5D32AD619A002D802D66255427544
:10035000B27501286255834561030520F250216181
:10036000828079712AD62AF42EF22AD008E11270FE
:100370000255272205004561828079712AD6A3059E
:10038000B1022AD22304B50045618280397106DEAC
:100390002ADC0D45231BB1026397A50037B5AA3EA1
:1003A0001305B5AA01A8035561038945631BB50070
:1003B0003705803F2AD837D5133F1305A5D32AD652
:1003C00019A002D802D662554275B275593F6255DE
:1003D000834561035D37F25021618280397106DE09
:1003E0002AD62AD40345752A058915C122558325A5
:1003F00045190720C5002EDC02FA2ED827A20500D9
:100400002255231A052422552304052A1DA022550E
:100410000325C516EF90603122550325C516EF90D0
:1004200020322255032545192ADC02DA2AD8232254
:100430000500225503254519530500F0C920225512
:1004400003258516E1202255032585182ADC02DACA
:100450002AD82326050022550325C5182ADC02DAEE
:100460002AD8232605002255032545182ADC02DA5E
:100470002AD8232605002255032585182ADC02DA0E
:100480002AD82324050022550325C5182ADC02DAC0
:100490002AD8232405002255032545182ADC02DA30
:1004A0002AD82324050022552328050A2255232A69
:1004B000050A2255232A05042255232C050422551A
:1004C000232A05022255231A05242255231A051C26
:1004D0002255231B051C2255231D051C2255231CB8
:1004E000051C2255231F051C2255231E051C2255C1
:1004F0000325851981459920F25021618280797107
:100500002AD62AF42AD208E145618280797106D67A
:100510002AD42AD208419145EF00D05212554841C1
:100520009145EF003052125508459145EF0090512A
:10053000125523040504B2504561828079712AD690
:100540002ED42AD20CC545618280757106C7AADCFB
:10055000AADA03254516AAD80720450482F6872083
:10056000850486F4072105048AF25370011882F08D
:100570005370111882EE0720C50582EC8315A50083
:1005800087200512465553F105D0D370111886EA1D
:100590000721450587218505537131108AE8367199
:1005A000867107A2416D537001102671E662D3F186
:1005B0004110D3F0111082E6537151108AE2766136
:1005C000D66186E4565553714110537131108AE05B
:1005D000032585182AC502E306E1AADE27200500C7
:1005E0000A607655272205005655032585182AC529
:1005F00002C32AC1232405005655032585182AC5A0
:1006000002C32AC1232605005655032585182AC58D
:1006100002C32AC1232805005655032585182AC57B
:1006200002C32AC1232A05005655466003258518B2
:10063000D31000202AC506E302E1AADE272C15000C
:100640000A607655272E050056550325C5181660F5
:1006500086602AC502E306E1AADE272005000A60BB
:1006600076552722050056550325C5182AC502C30D
:100670002AC12324050056550325C5182AC502C3DF
:100680002AC12326050056550325C5182AC502C3CD
:100690002AC12328050056550325C5182AC502C3BB
:1006A0002AC1232A050056550325C5182AC502C3A9
:1006B00002C1AADE232C05000A607655272E05000C
:1006C00046550720450687A0816D530510A031C10E
:1006D00046550720C50487A0C16D0721C52053706A
:1006E00010105370201802FE8720C50407A1016E68
:1006F000872105135655D3F02010D3F0301006FC97
:10070000032545182AC502E306E1AADE27200500D5
:10071000B9A046558315C50007200512D3F005D0B2
:1007200053F0001802FE8720050606FC0721450647
:10073000E6610AFA53F1201053F121180AF853F038
:1007400001105655D3F010105370101802F60325FF
:1007500045182AC50AE302E1AADE272025000A601F
:100760007655272205005655032545182AC502C38C
:100770002AC1232405005655032545182AC502C35E
:100780002AC1232605005655032545182AC502C34C
:100790002AC1232805005655032545182AC502C33A
:1007A0002AC1232A05004655D6550720C50403A5AE
:1007B0004518D31000202AC506E302E1AADE272C43
:1007C00015000A607655272E050066552120BA408F
:1007D0004961828039712ADA2AD8832505162ED6F6
:1007E000032585182ADE2ADC0720050027A4050238
:1007F0004255032585182ADE2ADC0720450032559C
:100800002726050242550325C5182ADE2ADC0720C3
:10081000050032552728050242550325C5182ADE52
:100820002ADC072045003255272A050242550325B8
:1008300045182ADE2ADC072005003255272005024C
:100840004255032545182ADE2ADC0720450032558B
:10085000272205022161828079712AD62AD42313A6
:1008600001020945C165FD15035661026340C504D7
:1008700003566102A2560606369623180600035652
:100880006102A25606063696231BB6000356610285
:10089000A25606063696231E0600031661020506BA
:1008A0002313C10203566102E354C5FC225585455A
:1008B0002301B50245618280797106D62AD42AD2F5
:1008C000832505162ED003458529058931C5125586
:1008D0000345A529058911C512558545A30CB528E1
:1008E00025A812550355C52801C912558315C528D9
:1008F000FD152316B5280DA012550325C516EF804A
:10090000F06A630E052E02550315C509925523960C
:10091000A5281255A30C052812550355451E6358EA
:10092000A00012558315451EFD152312B51E125544
:1009300082550720451F87A0C507539500A00DC10C
:10094000125582550355051D83D5C50863DDA502E3
:1009500012558315A51E93E515002315B51E15A880
:10096000125582550720451F87A00508531510A072
:100970000DC112550355051D63010512125583154E
:10098000051DFD1529A012558315051D8505231884
:10099000B51C125582550720451F87A045085315E1
:1009A00010A00DC1125582550355251D83D5C508CC
:1009B00063DCA50212558315A51E93E525002315BA
:1009C000B51E0DA8125582550720451F87A0850822
:1009D000539500A005C112550355251D71C512552B
:1009E0008315251DFD1529A012558315251D850587
:1009F0002319B51C12550325C5269145631CB52640
:100A0000125582550720451587A08505539500A0EE
:100A100009CD125582550355451D83D5E50863D090
:100A2000A5021255231A051C0DA012550355451D8C
:100A3000635DA00012558315451DFD1529A01255B3
:100A40008315451D8505231AB51C125582550720AF
:100A5000050487A0C505539500A015C512558255FC
:100A60000720C50187A08506531510A009CD125592
:100A700082550355651D83D5050963DEA502125510
:100A8000231B051C3DA812550355651D635BA00281
:100A900012558315651DFD151DA012558355A51E04
:100AA000F9992315B51EF5B512558355A51EF5996F
:100AB0002315B51E81B712558315651D8505231BAA
:100AC000B51C125582550720C50187A08506539590
:100AD00000A039CD125582550720051287A00505C3
:100AE000531510A01DE1125582550720451287A00D
:100AF0000505531510A011E91255825507208512DE
:100B000087A00505531510A005C51255825503553C
:100B1000A51D83D5450963D7A50212558315A51ECA
:100B200093E505082315B51E1255231D051C0DA0C0
:100B300012550355A51D635DA00012558315A51D13
:100B4000FD1529A012558315A51D8505231DB51C6E
:100B5000125582550720050487A00506539500A06D
:100B6000630A0510125582550720051587A0450513
:100B7000539500A009CD125582550355851D83D587
:100B8000250963D0A5021255231C051C0DA0125582
:100B90000355851D635DA00012558315851DFD1548
:100BA00029A012558315851D8505231CB51C1255DA
:100BB00082550720050487A0C505531510A015C54B
:100BC000125582550720C50187A08506531510A030
:100BD00009CD125582550355E51D83D5850963D787
:100BE000A5021255231F051C05A812550355E51D26
:100BF0006354A00212558315E51DFD1521A8025569
:100C00000315E50992552396A528F9B112558315C8
:100C1000E51D8505231FB51C125582550720C5010A
:100C200087A04506539500A015C51255825503555A
:100C3000C51D83D5650963D9A50212558315A51E67
:100C4000056613060680D18D2315B51E1255231E89
:100C5000051C0DA012550355C51D635DA00012555E
:100C60008315C51DFD1529A012558315C51D8505C4
:100C7000231EB51CB25045618280397106DE2ADC24
:100C80002ADA0345F52A05896309051A5255A3078F
:100C9000052A5255072045118720C50F53701010A3
:100CA000537500585325A5A06309051A52552720EE
:100CB000A5125255072085118720C50F53701010BB
:100CC000537500585325A5A0630E051852552722C9
:100CD000A51252550720C5118720C50F537010105B
:100CE000537500585325A5A06303051852552724B2
:100CF000A512525507208513872005105370101038
:100D0000537500585325A5A0630805165255272290
:100D1000A51452550720C5138720051053701010D5
:100D2000537500585325A5A0630D0514525527246B
:100D3000A514525507200514872005105370101074
:100D4000537500585325A5A0630205145255272654
:100D5000A51452550720051287204512539500A06F
:100D600052550720051202F80720451202F6525587
:100D700007208512C270539500A009C5525507205F
:100D8000851211A04270525502F807208512B270E8
:100D9000531510A009C552550720851211A03270B5
:100DA000525502F60720850F8720C5015370101891
:100DB00002F48720850F539500A009C552550720DE
:100DC000850F11A02270525502F4D31510C02316BE
:100DD000B51C52558355C51C07A0416ED3F015D0E4
:100DE00053701018272E050E52550720C50F2720C7
:100DF00005104270B27052555371100853701000B4
:100E00005370011827280514525507200512872012
:100E10004514072145128721851407228512872250
:100E2000C51453701010D370311053701000D3706C
:100E3000521053701000272A0514525507204507F9
:100E40008720C501072145105370101053702010E2
:100E5000272C0514F2502161828053050020EF8079
:100E6000D052A9B553050020EF80305285B5530507
:100E70000020EF8090519DBD53050020EF80F05081
:100E800071B553050020EF8050504DB5530500203B
:100E9000EF80B04F65BD797106D62AD42AD283255A
:100EA000C526114563E6A500925523A6A52629A0CF
:100EB00012558D452326B52612550345752A0589F9
:100EC00001C51255894519A012558D452324B52613
:100ED0001255232405001255032585198145EFF08D
:100EE000EFE512558545A30EB5281255231A0524A2
:100EF00012558315851E85052314B51EB250456114
:100F00008280797106D62AD42AD22324050012556C
:100F1000A30E052812552324052612559145232694
:100F2000B5261255032585198145EFF02FE112559D
:100F30002313051EB25045618280397106DE22DC22
:100F400022FA2AD82AD6832505162ED40345D52978
:100F5000058945C932550325C516EF80B015B94539
:100F6000631CB504325503459529058931C53255B1
:100F70000325C5168545EF8050253255A25503251A
:100F8000C516A865EF80502C22550720C501872083
:100F900045005370100802F28720450007A1816EBA
:100FA00053200020D3F02010531510A039C932551A
:100FB0000325C5168545A1A032550325C516530442
:100FC00000F053058420EF80302832550325C516E4
:100FD00053058420EF80D02532550324C516228581
:100FE000EF80900A2285EF80302332550325C51605
:100FF0008145EF80901D32550325C5168145EF8050
:10100000102052746254F25021618280797106D6A8
:101010002AD42AD2832505162ED00325C516EF80A3
:101020007009925523A2A52812550325C516EF80F5
:10103000D009925523A4A52812550325C516EF8083
:101040005003025508E112550325C516EF80D00361
:10105000025548E112550325C516EF80607D025503
:1010600008E512550325C516EF80E07D025548E5D9
:1010700012550325C516EF80C074025548E9125574
:101080000325C516EF80E07307A0C16E02555370AB
:1010900005102728050012550325C516EF80207579
:1010A000025568E512550325C516EF80207B0255D1
:1010B00008ED12550325C516EF80C065125568F975
:1010C00012550325C516EF80807D025548ED125557
:1010D0000720050A8720450A53700010D3F010102E
:1010E00053701000537500585325A5A005C912551B
:1010F00028E1125507200508872045085370001085
:10110000D3F0101053701000537500585325A5A04C
:1011100019C9125568E1B25045618280530500201B
:10112000EF80B026E9B753050020EF801026D5B731
:1011300079712AD62AD40720851F872085105370FD
:10114000001053F000002724051022550720C51F6A
:101150008720C5105370001053F00000272605109B
:10116000225507200520872005115370001053F0E9
:101170000000272805102255072045208720C5128A
:101180005370001053F00000272605122255072047
:101190008520872005135370001053F00000272886
:1011A000051222550720C5208720451353700010D3
:1011B00053F00000272A051222558315E51C8505EA
:1011C0002317B51C22558355E51C0355C51C6359CF
:1011D000B506225507208510272A0510225507201D
:1011E000C510272C0510225507200511272E0510A4
:1011F0002255232405102255232605102255232885
:10120000051022550720C512272C0512225507204C
:101210000513272E051222550720451327200514F4
:101220002255232605122255232805122255232A4A
:10123000051222552317051C22558545A307B52AFB
:1012400045618280797106D62AD42ED2B92011E95F
:1012500037A56000130505B985659385D52CEF800A
:10126000402F03554102137515F811C937A56000C9
:10127000130505B985659385E52CEF80802D73E016
:10128000107C225592550326C526D18D2326B526DE
:1012900073F0107CB250456182807971AA852AD69C
:1012A000296605456387C504B25513060640638267
:1012B000C5043256AD6593860580630CD60232565E
:1012C000938505C06307B6023256AD656303B60267
:1012D000325693850540630EB6003256B16593864B
:1012E00005806308D6003255938505C02D8D1335D2
:1012F000150045618280797106D62AD42ED22AD073
:10130000A9E10255C165938505002320B516025554
:10131000C165938585152322B5160255CD65938544
:10132000C5A92326B516138581D79305C004EF20E0
:10133000900B825523A4A5160255938501E1232E17
:10134000B518125585456311B5040255C1659385DD
:10135000C50A2320B5160255938581B62322B516FA
:101360000255CD65938545FC2326B516138541DCD2
:101370009305C004EF205010825523A4A5160255F2
:10138000938541E3232EB518B250456182801D71CB
:1013900086CEA2CCA6CACAC8A2E62ADE2EDC2ADAEB
:1013A000832505162ED8832545162ED603254516EA
:1013B000EF80407CD25503A5851683A5451662565D
:1013C000EF300016525503254516EF50B0416255D7
:1013D0006311055A525503254516EF50B04042554A
:1013E000B7D54C3D9385D5CC0CD14255B7D5A33B51
:1013F0009385A5704CD14255B755B83C9385C51E11
:101400000CDD4255B775133B9385C54B4CDD4255FA
:10141000B7C532BE9385358C2CC14255B775133F85
:101420009385C54B6CC14255B7D58C3F9385D5CCC0
:101430002CC54255B7D54C3E9385D5CC2CC94255C9
:101440006CC9425537067A4330CD42553706A04025
:1014500070CD4255B73673419386363334D14255F9
:10146000B706AF4374D1425530D54255373686352D
:101470001306D67B70D5425537B6BA411306B6F877
:1014800030D942563705704168DA4256B7C6AD4288
:101490009386B65034DE4256B706544274DE425646
:1014A000B70652422320D60842562322B608C25518
:1014B0003706204123A4C508C2551306401F2396B2
:1014C000C508C2551306800C2397C508C25523983A
:1014D000C508C2551306803E2399C508C255930618
:1014E000007D239AD508C25513078025239BE50864
:1014F000C255239CD508C2559546239DD508C25593
:101500002390C50AC2552391C50AC2550D462392A0
:10151000C50AC2550566130606C02393C50AC255FF
:10152000130600402394C50AD2552392051EB255D6
:1015300007A08501D25527A60522B25507A085012F
:10154000D25527A80522B25507A0C501D25527A418
:101550000522D255A38D0528D25523AC0526D25598
:101560003166130636032397C51ED2553706A041B0
:10157000D0C9D25588CD5255B70540404CD15255AF
:10158000B705F0410CD552554CD55255B785103F93
:101590009385351C2CC55255B7C558419385452AAE
:1015A0006CC55255B705C03F2CD152556CD1525520
:1015B000B70530412CD552556CD55255B705004072
:1015C0006CCD5255B715C93F9385B5FD2322B51093
:1015D0003255072005125255272C050E5255B7A536
:1015E0005B399385E5CF232EB50A325507200512C6
:1015F00087A0016F525553701010D31510C0231ED1
:10160000B52452552328052632550345451D058925
:1016100009C952558545232EB5265255A305B52A2D
:1016200039A05255232E05265255A305052A525599
:101630000549A30F25295255A303052A5255230511
:10164000052A5255A302252B52552303252B52550B
:10165000232225295255232425295255232825297B
:101660005255A300252B3255072005125255D3158C
:1016700010C0231CB5243255072005125255D3152E
:1016800010C0231BB5243255072005125255537044
:101690000000D31510C0231DB524138581E59305E3
:1016A000000DEFE0DFB4D25523A8A518D25503A54D
:1016B000051983A54516EFE09FB852550325051976
:1016C000B7A56000938585BCEFE09FC15255032507
:1016D00005199305C002130650029306B002EFE00D
:1016E0003FB35255B705803F232CB50A6255B1442C
:1016F00033059502D255138681F2329523A8A5169B
:101700005255B2550325051783C5F500EFE07FC19B
:10171000625533059502D255138601F4329523AAFA
:10172000A5165255B2550325451783C5E500EFE0D0
:10173000FFC562555256938581F50E052E95232CD3
:10174000A61662555256938581F60E052E95232EC8
:10175000A61662555256938581F70E052E952320C5
:10176000A61862555256938581F816052E952324A6
:10177000A61862555256938581FC16052E95232690
:10178000A618625552569385810016052E95232280
:10179000A618625533059502D255138681043295F9
:1017A00023ACA5185255032585198145EF004076D5
:1017B00052551305452307A5416F87A5816F07A6DD
:1017C000C16FEF50E0606255D1453305B502D25587
:1017D00013860106329523AAA518525503254519EB
:1017E000530500F0EF00A073525503254519AAC414
:1017F00082C2AAC0232205003255D2550720C52037
:1018000003A5451953150020EF0040725255B255FB
:101810000325451907A5C520EF0020723255D25582
:10182000072045138720051203A545195375101885
:10183000EF008071525503258516EF30B064525584
:10184000E2550325851693044002B385950213845F
:1018500001E1A295EF30B065031544008315040142
:10186000136505081375F5F92312A40013E5E504C3
:101870001375E5C783154401136505102318A400EB
:10188000525593E5052493F5F5A7231AB4000325D3
:101890008516EF00406C625533059502D2552295AE
:1018A0006256230C250103A58516B3059602A29561
:1018B000EF30905ED25503A5C51683A54516EF708F
:1018C0003064D25503A5C51683C5F529EF80A00C59
:1018D000D25503A5C51683C55529EF80A010D25552
:1018E00003A5C51683A5451607A50170EF80C0188E
:1018F000D25503A5C51683A5451607A44170530507
:101900008420EF800019D25503A5C51683A545167E
:1019100053058420EF8080193255085919EDD255AE
:1019200003A5C51683C56529EF808008D25503A598
:10193000C51683C57529EF8060045255230D05280F
:101940005255A30C05284255BD65938505A6231E57
:10195000B50842559965938505DC231FB508725576
:10196000EFE0BFBE525503258516F52352552311CE
:10197000052A625585456316B55852550325451607
:10198000EF50302D4255B7D54C3D9385D5CC0CD179
:101990004255B7D5A33B9385A5704CD14255B75559
:1019A000B83C9385C51E0CDD4255B775133B938536
:1019B000C54B4CDD4255B7C532BE9385358C2CC125
:1019C0004255B775133F9385C54B6CC1C25537055A
:1019D000C03FA8C5C25537D64C3E1306D6CCB0C9B9
:1019E000C255F0C9C255B7067A43B4CDC255B70641
:1019F000A040F4CDC2553737734113073733B8D100
:101A0000C2553707AF43F8D1C255B4D5C255B73622
:101A100086359386D67BF4D5C255B7B6BA41938640
:101A2000B6F8B4D9C256B7057041ECDAC25637C71A
:101A3000AD421307B750B8DEC25637075442F8DE3E
:101A4000C2563707524223A0E608C25623A2C60850
:101A5000C2563706204123A4C608C2561307401FAA
:101A60002396E608C2561307800C2397E608C25651
:101A70002398E608C2561307803E2399E608C2560B
:101A80009307007D239AF608C25693048025239B72
:101A90009608C256239CF608C2569547239DF60821
:101AA000C2562390E60AC2562391E60AC2560D4753
:101AB0002392E60AC2560567130707C02393E60A76
:101AC000C256130700402394E60AD2562392061EFC
:101AD000B25607A08601D25627A60622B25607A004
:101AE0008601D25627A80622B25607A0C601D256B2
:101AF00027A40622D256A38D0628D25623AC06264A
:101B0000D2563167130737032397E61ED25637079D
:101B1000A041D8CAD2568CCED256B7074040DCD2AC
:101B2000D25698D6D256D0D65256B786103F938604
:101B3000361C34C65256B7C658419386462A74C6D8
:101B4000525628D2525668D252553706304130D5B7
:101B500052556CD55255B70500406CCD5255B7154E
:101B6000C93F9385B5FD2322B510325507200512D4
:101B70005255272C050E5255B7A55B399385E5CFF5
:101B8000232EB50A32550720051287A0016F525542
:101B900053701010D31510C0231EB524525523289E
:101BA000052632550345451D058909C95255854508
:101BB000232EB5265255A305B52A39A05255232EFA
:101BC00005265255A305052A52550544A30F85281D
:101BD0005255A303052A52552305052A5255A3023F
:101BE000852A52552303852A52552322852852558A
:101BF000232485285255232885285255A300852A59
:101C00003255072005125255D31510C0231CB52498
:101C10003255072005125255D31510C0231BB52489
:101C2000325507200512525553700000D31510C0CD
:101C3000231DB524138581089305000DEFE02FDBEC
:101C4000D25523A8A518D25503A5051983A5451675
:101C5000EFE0EFDE525503250519B7A56000938527
:101C600085BCEFE0EFE7525503250519B9456546F8
:101C7000E946EFE0EFD95255B705803F232CB50A6E
:101C80006255B14433059502D255138681F23295DF
:101C900023A8A5165255B2550325051783C5F5008F
:101CA000EFE02FE8625533059502D255138601F413
:101CB000329523AAA5165255B2550325451783C55B
:101CC000E500EFE0AFEC62555256938581F50E05C5
:101CD0002E95232CA61662555256938581F60E0535
:101CE0002E95232EA61662555256938581F70E0522
:101CF0002E952320A61862555256938581F8160515
:101D00002E952324A61862555256938581FC1605FC
:101D10002E952326A61862555256938581001605E6
:101D20002E952322A618625533059502D2551386A7
:101D30008104329523ACA518525503258519814598
:101D4000C12A52551305452307A5416F87A5816F09
:101D500007A6C16FEF50C0076255D1453305B502E4
:101D6000D25513860106329523AAA518525503258C
:101D70004519530500F06522525503254519AAC49B
:101D800082C2AAC0232205003255D2550720C520A1
:101D900003A5451953150020512A5255B255032564
:101DA000451907A5C520512A3255D255072045139C
:101DB0008720051203A54519537510187122525535
:101DC00003258516EF30100C525503258516938494
:101DD00001E193854402EF30900D039584028395D1
:101DE0004403136505081375F5F92394A40213E55C
:101DF000E5041375E5C78395840313650510239ADD
:101E0000A402525593E5052493F5F5A7239CB4024B
:101E10000325851689226255930540023305B502D4
:101E200052562695E256230C850003258616B38567
:101E3000B602A695EF305006D25503A5C51683A568
:101E40004516EF70F00BD25503A5C51683C5F529CD
:101E5000EF707034D25503A5C51683C55529EF70B0
:101E60007038D25503A5C51683A5451607A5017080
:101E7000EF709040D25503A5C51683A5451607A45B
:101E8000417053058420EF70D040D25503A5C5168C
:101E900083A5451653058420EF70504132550859EB
:101EA00019EDD25503A5C51683C56529EF705030CD
:101EB000D25503A5C51683C57529EF70302C525530
:101EC000230D05285255A30C05284255BD65938561
:101ED00005A6231EB50842559965938505DC231F89
:101EE000B5087255EFE06FE6525503258516E255A9
:101EF000EF30D010525503258516B12852552311C5
:101F0000052A36644649D6446644F64025618280F7
:101F100079712AD62ED42AD20CC545618280797176
:101F20002AD62AF42AD208E14561828079712AD61C
:101F30002AF42AD208E54561828079712AD62AF4EA
:101F40002AD248E54561828079712AD62AF42AD2BC
:101F500008E945618280797106D62AD42AD20841DF
:101F60009145EF10C00D125548419145EF10200DDD
:101F7000125508459145EF10800C125523040504B5
:101F8000B25045618280197186DEA2DCA6DACAD819
:101F9000CED6D2D4D6D2A2F0A6EE2ADC2EDA2AD819
:101FA000832505162ED6EF00C07342553256032501
:101FB00085168355660A0356860AEF40F05B525534
:101FC0001DC5525585456313B50A09641305048080
:101FD00089451306E07EEF000076130404C08945AE
:101FE0001306007E2285EF0000758D4515A009645B
:101FF000130504801306E07E8145EF00C0731304CF
:1020000004C01306007E22858145EF00C07285451D
:102010001306707D2285EF0000724255B7E5FD443E
:102020008D152328B5204255B725FC449385258579
:10203000232AB5204255B705FB44938595FC232CF4
:10204000B5204255B785FF3E9385959F232EB52039
:102050004255B7B5FE3E938555DC2320B522425547
:10206000B735003F938585DE2322B52242550345CF
:10207000052A05896302055237857F3F1305E5CFA1
:102080002AD44255B705033B9385851A2ED20720E3
:10209000852287A0817053F0001802F013052003F9
:1020A0009700A1FFE780C05D52551DC1525585457F
:1020B0006310B50409641305048089450146A52D04
:1020C000130404C0894522850146B5258D4531A8F4
:1020D00009641305048081450146B12D130404C031
:1020E000228581450146812D854522850146A12510
:1020F000425507200521872085225370101027287C
:102100000520425507204521872085225370101055
:10211000272A0520425507208521872085225370D4
:102120001010272C05204255232A05224255232C26
:1021300005224255232E0522425583258516130577
:102140004523AECCAACAAEC88841EF00907C53703C
:1021500015D007A4C17387A4017482E62315010476
:102160000944A1A08355A104464513962500D646EF
:10217000329508418605B69503D6C5008145EF0026
:10218000D07B8355A104464513962500D64632954B
:1021900008418605B69503D6C500A145EF00F07944
:1021A0000315A10405052315A1040355A1046343E8
:1021B000A4060355A104D645131625002E96072024
:1021C00006005310002082E253108028530090280C
:1021D000B66082E05370900002FE537010105316E8
:1021E00000C006052E952316C5000355A104D6454B
:1021F00006052E950355C50083D56501E354B5F654
:1022000056458355A1040316650186052E952316B0
:10221000C50089BF425503258516A12B2312010451
:1022200021659309F5CF0965130405C013090594C9
:1022300007A48170054A930405D4930A007D11A870
:102240004255032585163523031541040505231240
:10225000A1040355410463C4A92822858145B52BF7
:10226000228581455D236DDD525571C15255631C38
:10227000451942551305451FAACCD2CA63100A0C52
:1022800085454A85EF10C000E645537015D082E8B9
:1022900087A045035370101027A2050085452685A9
:1022A000EF00107FE645537015D082E887A0450304
:1022B0005370101027A405008D452685EF00507D32
:1022C000E645537015D082E887A04503537010107F
:1022D00027A605008D454A85EF00907BE6455370A3
:1022E00015D082E887A085035370101027A8050039
:1022F00095452685EF00D079E645537015D082E8E4
:1023000087A085035370101027AA050095454A85BC
:10231000EF001078E645537015D082E887A085035A
:102320005370101027AC05009D452685C9A0425565
:102330001305451FAACC82CAE30400F45645631472
:10234000450D9D454A85EF00B074E645537015D0A4
:1023500082E887A045035370101027A20500A54509
:102360002685EF00F072E645537015D082E887A00D
:1023700045035370101027A40500AD452685EF00D6
:102380003071E645537015D082E887A0450353703D
:10239000101027A60500A5454A85EF00706FE64599
:1023A000537015D082E887A085035370101027A8BA
:1023B0000500AD454A85EF00B06DE645537015D078
:1023C00082E887A085035370101027AA0500B54541
:1023D0002685EF00F06BE645537015D082E887A0A4
:1023E00085035370101027AC0500B5454A85EF00F2
:1023F000306AE645537015D082E887A0C503537054
:10240000101027A0050003554104E34B55E3425546
:102410002270872005210721851F927153701010AB
:10242000D3703110537010002728052042552270B8
:10243000872045210721C51F927153701010D3705A
:10244000311053701000272A052042552270872032
:10245000852107210520927153701010D37031101F
:1024600053701000272C052042550720451F53703C
:10247000041882E6A2700721C52187214520127227
:10248000D3F02010537030105370401053F0000000
:10249000272E05204255227087200522366187218C
:1024A0008520127253701010D3703110D3F0401089
:1024B00053701000272005224255227087204522A4
:1024C00036618721C520127253701010D3703110FD
:1024D000D3F040105370100027220522B5B34255A7
:1024E00003258516EFF03FA742552300052A4255E4
:1024F00007200521827053701010272805204255AF
:1025000007204521827053701010272A052042555C
:1025100007208521827053701010272C05205255FA
:1025200021C1525585456319B5064255072005213D
:10253000531610C00964130504808945ED2A4255DD
:1025400007204521531610C0130404C08945228575
:10255000DD22425507208521531610C08D451DA848
:10256000425507200521531610C009641305048045
:102570008145D122425507204521531610C013042E
:1025800004C022858145452A4255072085215316DE
:1025900010C0854522854522525509C552558545AD
:1025A0006316B51242550720052187A0C170316519
:1025B000D39500A07D1589E9C25507A0052187A004
:1025C0000171D31510A089C9C25503D6A51E698E05
:1025D0009166558E2395C51EC25507A0452187A03B
:1025E0004171D39500A089E9C25507A0452187A074
:1025F0008171D31510A089C9C25503D6A51E698E55
:102600009166558E2395C51EC25507A0852187A0CA
:10261000C171D39500A089E9C25507A0852187A083
:102620000172D31510A089C9C25503D6A51E718D9C
:102630001166518D2395A51E42550720C52187A0FF
:102640004172A165539600A01385F5FF09EA425631
:102650000720C62187A08172531610A001CA4256D6
:102660008356A61EE98ED58D2315B61EC25507A02A
:10267000052287A0C172D39500A089E9C25507A0A1
:10268000052287A00173D31510A089C9C25503D6AE
:10269000A51E698EA166558E2395C51EC25507A03D
:1026A000452287A04173D39500A089E9C25507A0B0
:1026B000452287A08173D31510A089C9C25503D6BE
:1026C000A51E718D2166518D2395A51EF664067495
:1026D000965A265AB6594659D6546654F650096148
:1026E000828079712AD6032505162AD4072045074A
:1026F00002F287200507539500A009C5225507203F
:10270000050702F2225512708720850753701010BA
:10271000D31500C02311B102056613060680B295D9
:102720002313B50A03152102A2553305A6402394AD
:10273000A50A45618280397106DE2ADC2EDA32D89C
:10274000EF00101B09E937A56000130545BE93058E
:102750008061EF6010605255E1453305B502E255E6
:1027600042561305C50A2AD62E9510C1F250216192
:102770008280797106D62AD42AD24845EF003022C9
:1027800012554845EF00D02412550849EF0030217A
:1027900012550849EF00D02312554849EF00302068
:1027A00012554849EF00D022125508419305E00721
:1027B000EF003025125548419305E007EF007024E3
:1027C000125508459305E007EF00B02312558545E3
:1027D0002304B504B25045618280797106D62AD4AB
:1027E0002ED2EF00F01009E937A56000130545BEB1
:1027F00093057030EF60F0551255A255054633151C
:10280000A60088C9B25045618280797106D62AD463
:102810002ED2EF00F00D09E937A56000130545BE83
:102820009305702EEF60F05222554845925533556E
:10283000B5000589B250456182805D7186C6A2E40B
:102840002ADA2AD8832505162ED6832545162ED4B6
:1028500003258516AAC2AAC003458504058909C5B2
:10286000425503258516452142558315A51E03169D
:10287000051FD18D2318B51E42558315A51E0316BD
:10288000E51EF18D2316B51E4255325603258516D9
:102890008355660A0356860AEF40004E42550345AB
:1028A000C529058929C942550355C51E35C5425557
:1028B0000345D529058979C94255A30E05284255F6
:1028C00085452326B52632550315250AC255239280
:1028D000A51E42558315651E85052313B51E425559
:1028E0000345B529058971ED4255230E052842554A
:1028F0002312051EF9A042550345D529058979C53E
:102900005255EFE00FE042550345752A058945C150
:1029100042552312051E5DA842550345D529058958
:1029200055E542550355451E55E142550345452998
:10293000058929C94255230F052842552302052A36
:102940004255232E05264255A305052A4255230646
:10295000052A22550720C506425527220500225583
:10296000230A051C737004300100C25503A5C51667
:1029700083A54516EF60D0587360043001004255BE
:10298000230A05285255EFE00FD189A0425503557F
:10299000451E05E94255B2550355651E83D5450AC6
:1029A000635EB500425585452307B52A19A83255FF
:1029B0000315050AC2552392A51E09A84255230EE8
:1029C0000528425503258516EFF0EFD82255085902
:1029D00001E9C25503A5C51683C57529EF60107AB4
:1029E00042550345E52A058911CD42550325851633
:1029F000A12642558355A51EBD892315B51E4255F6
:102A00002307052A42550345D529058931C9425571
:102A100003258516AAC2AAC003458504058919EDB8
:102A200042550325C516EF60B05542550325C5161E
:102A3000EF607056425503258516253B42550345E8
:102A4000E52905890DC1425507204500530400F0D2
:102A5000531504A0630505104255B705803F19A220
:102A60005255EFD0BF9742550325C516EF60306E23
:102A700019C5425503258516EFF0EFCD31A042551B
:102A80000325C516EF70200C42550325C516EF60CF
:102A9000906619C5425503258516EFF0CFCBADA83A
:102AA0004255230001040325C516EF60B055425579
:102AB000AAE20345E529058919C542550325C5162E
:102AC000530500F029A042550325C5161665EF7081
:102AD000E0082300A10403450104058915CD4255F2
:102AE0000325C516EF60307E42550345E52905896B
:102AF00011ED42570325C7168325471603264718AD
:102B0000832687180327C718EF60507D2255034599
:102B1000451D0589630D051642550325C516EF6051
:102B2000B061C255238FA52842550345E529058983
:102B300009CD42550345452A058901E94255854598
:102B40002302B52A5255EFD05FA05255EFE0EFBEF9
:102B50005255EFE0AFCB2664B640616182804255AA
:102B6000B70580BF0CC1C25503A5C51683C5F5299D
:102B7000EF607062C25503A5C51683C55529EF6085
:102B8000706642550325852695456367B500C25595
:102B900003A54519C86111A8425507208501872062
:102BA00005000325451953751010EFF04FB7425536
:102BB0000720C5008720450153200020539500A021
:102BC00041C54255A2550720850287A0051203255D
:102BD000451953751018EFF02FB742550720C50659
:102BE00003254518D3100020AAC286E002FE2ADC85
:102BF000272C150072706255272E0500C25503A5BB
:102C0000851983A5C527EFF0AFB04255032585266A
:102C10009545E36AB5E44255831545258505231A94
:102C2000B5244255835545250355A525E39DA5E2C9
:102C300042552328050A425599452324B526425575
:102C400091452326B52605B54255A2550720C50254
:102C500087A005120325451953751018EFF0CFAE64
:102C6000425507208500530504A0425507208506DC
:102C700003254518D3100020AAC286E002FE2ADCF4
:102C8000272C150072706255272E0500E9BB4255AE
:102C90000325C516EF60F04819ED42550325C5160A
:102CA000EF609049E30A05E642550325C516EF603B
:102CB000F045E30305E642550325C516EF60D0470E
:102CC00005C942558545230FB5284255A30E052851
:102CD0004255230E05282255230AB51C42550325CB
:102CE000C516EF60902442550325C516EF605025A8
:102CF00022550859E31205E24255A30E0528425514
:102D0000230E052811BD397106DE22DC2ADA2AD805
:102D10002317010208415D2BC255CC412A842E8520
:102D20007523C2558C45498C2E854D23418D718963
:102D30006254F25021618280797106D62AD42AD257
:102D40004845B12912554845612112550849812944
:102D500012550849B529125548499121125548493B
:102D60008529125508419305E0076129125548410C
:102D70009305E0077921125508459305E007512195
:102D8000B2504561828079712AD62ED42AD20CCDD8
:102D900045618280397106DE22DC2ADA2AD802D423
:102DA0002317010209440355E1026342A4040355B9
:102DB000E102C2550A052E95085D8545AD2BA25549
:102DC0000356E102C2562E952AD4131526003695D5
:102DD000085D89458D23A2552E952AD40315E1025D
:102DE00005052317A1020355E102E352A4FC225575
:102DF0006254F25021618280397106DE2ADC2AFA9F
:102E00002AD87D2BC255239FA50442554C4D8505DC
:102E10004CCD42558355E505035505066383A50E44
:102E20005270D30000F0539500A015C14255835550
:102E3000E5058A05AA9507A0C5028720C504537039
:102E400010002724050442552318050615A04255F5
:102E50008355E5058A05AA9507A0C5028720C50404
:102E60005370100827240504425585452318B506DC
:102E700042558315E5052310B50642550C4D072034
:102E80000500D3F015D05370101802F64C4D505178
:102E9000145107204500B295B695D3F015D0537064
:102EA000101802F40355050701CD32704255531036
:102EB000002027240500227042555310002039A01D
:102EC00032704255272405002270425527260500FE
:102ED0004255227087204501539500A009C54255EF
:102EE0000720850021A042550720C500272805009E
:102EF00042550C514CD142554C4D0CD14255232ECC
:102F0000050042554C4D0855637EB50042552324BB
:102F10000500425523260500425523280500425549
:102F2000232E050042550720850487A0817653850E
:102F300000A019C542550720850487A0417731A814
:102F400042550720850487A0C176530510A011C9FA
:102F500042550720850487A001775370100027246D
:102F60000504F2502161828079712AD62AD428651D
:102F70004561828079712AD62AD4086945618280A8
:102F8000797106D62AD42AF22AD01D298255239F88
:102F9000A5041270D30000F0539500A00DC902558E
:102FA0008355E5058605AA95839525062310B50664
:102FB00002552318050602558355E5058A05AA958D
:102FC00007A0C5028720C504537010082DA0025524
:102FD0008315E5052310B506025585452318B5066A
:102FE00002558355E5058A05AA9507A0C5028720E5
:102FF000C5045370100027240504025507208504DA
:1030000087A08177538500A019C502550720850444
:1030100087A0417831A802550720850487A0C17791
:10302000530510A011C902550720850487A0017817
:103030005370100027240504B250456182807971D5
:1030400006D62AD42ED2B92011E937A5600013057F
:1030500005B985659385D52CEF60A04F03554102D6
:10306000137515F811C937A56000130505B98565F5
:103070009385E52CEF60E04D73E0107C225592556E
:103080000326C526D18D2326B52673F0107CB250B9
:10309000456182807971AA852AD6296605456387AC
:1030A000C504B255130606406382C5043256AD65A9
:1030B00093860580630CD6023256938505C063075C
:1030C000B6023256AD656303B602325693850540AB
:1030D000630EB6003256B165938605806308D6004C
:1030E0003255938505C02D8D1335150045618280BD
:1030F0007971AA852AD609669306068005456388F4
:10310000D5003255930506C02D8D13351500456148
:103110008280797106D62AD4B53F11E937A56000BF
:10312000130505B9856593859594EF608042225516
:103130000325C518B25045618280397106DE2ADC4C
:103140002EDA32D8813F11E937A56000130505B9A1
:103150008565938545A2EF60C03F52559305851A5A
:103160002ED609C55255A1456313B5026255B25515
:103170002E950841C165FD154256E25632576D8DB8
:10318000931506014D8DB385E60088C131A06255C7
:10319000B25542562E9510C1F2502161828079714C
:1031A00006D62AD4552809E937A560001305B5C10C
:1031B0009305502EEF60E03973E0107C22554C45AA
:1031C00093E525004CC573F0107CB25045618280B8
:1031D000797106D62AD4492009E937A5600013057C
:1031E000B5C193053030EF60C03673E0107C2255D6
:1031F0004C4593E505204CC573F0107CB2504561F9
:103200008280797106D62AD42ED2693511E937A584
:103210006000130505B985659385B525EF606033BA
:10322000125593050008636BB50037A560001305C0
:1032300005B985659385C525EF60A03173E0107CE5
:10324000225592550326C525D18D232EB52473F022
:10325000107CB250456182807971AA852AD6396680
:103260009306068005456383D502B255130606888A
:10327000638EC5003256B965938605906308D60003
:103280003255938505982D8D133515004561828043
:10329000797106D62AD40966930606942ED2630F56
:1032A000D5002255930506D4630AB50037A5600002
:1032B000130545BE9305A036EF60A0291255A2550F
:1032C0000A052E950841B25045618280797106D673
:1032D0002AD4C93311E937A56000130505B98565FE
:1032E0009385851CEF60E02622550325C5241375C0
:1032F000F507B2504561828079712AD6956523A27F
:10330000A5104561828079712AD62AD40861456169
:10331000828079712AD62AD40869456182807971C0
:103320002AD62AD408654561828079712AD62AD4A2
:10333000486545618280797106D62AD42ED29128BB
:1033400009E937A56000130545C593054052EF60B4
:1033500040201255854563C9A50015C18545631EEA
:10336000B500225548450DA08945630DB5008D4532
:103370006315B5002255484901A802D039A022554D
:10338000084519A0225508492AD00255B250456176
:1033900082807971AA852AD635669306064005454E
:1033A000638ED500B255130606486389C5003255B1
:1033B000B565938505502D8D1335150045618280C7
:1033C000797106D62AD42AD202D0035585052D203C
:1033D00092552AD003D5A50505208255125606051B
:1033E0002E952AD00355C605012882550A052E952B
:1033F0001D89B25045618280797106D62AD41D2874
:1034000009E937A560001305C5C893050018EF60EA
:103410004014225505814199B7450300938505E085
:103420002E952AD20841A2553355B5000589B250D0
:10343000456182807971AA852AD61306C0030545A5
:1034400063EAC50032559305000E6367B500325537
:103450001335850F45618280014545618280797110
:103460002AD62AF42AD208E14561828079712AD6C7
:103470002AD408614561828079712AD62AD4084508
:1034800045618280797106D62AD42AD23920125514
:1034900021281255B2504561828079712AD62AD4EA
:1034A000230605004561828079712AD62AD4A306B5
:1034B000050045618280397106DE22DC26DA4AD8B1
:1034C0002AD62AD4231201020845854545202255D3
:1034D0000845854561282313010223120102116565
:1034E000791583554102634CB500010083154102F3
:1034F00085052312B10283554102E358B5FE4165AB
:103500001304F5FF9304803E0549325581457D2023
:1035100093750540014589C5035561021325853E14
:1035200011CD031561020505B37585002313A102B2
:10353000E3CD95FC2255A3062501C1BF231201024C
:103540002165791583554102634CB500010083154F
:10355000410285052312B10283554102E358B5FEAD
:103560004259D2546254F25021618280397106DE90
:103570002ADC2EDA712909E937A560001305C5C8D0
:103580009305201CEF50F07C625593551500C199AE
:1035900037460300130606E0B29552562ED88545ED
:1035A0003395A5002AD609C63255C255C8C121A0F7
:1035B0003255C25588C5F250216182805D7186C640
:1035C000A2C4A6C2AAC02EDE2ADC23190102231738
:1035D000010202D405450146E922231BA102231A58
:1035E00001021D4583554103634CB500010083155D
:1035F00041038505231AB10283554103E358B5FE03
:10360000625508416D2A62550841ED22231A0102D4
:103610007D4583554103634CB5000100831541038B
:103620008505231AB10283554103E358B5FE62555F
:10363000084183556103CD2A41651304F5FF854494
:10364000225515E162550841192C2AD40315E102CF
:103650000505B37585002317A102E3C385FE6255F6
:1036600023069500F1BF41657D152317A102231A9A
:1036700001021305F00F83554103634CB5000100AF
:10368000831541038505231AB10283554103E3588D
:10369000B5FE62550841DD2A2318A1020355010336
:1036A0001375F57F96442644B64061618280797136
:1036B0002AD62ED42AD20CC14561828079712AD6AD
:1036C0002ED42AD24CC14561828079712AD62ED45B
:1036D0002AD20CC545618280397106DE22DC2ADAE5
:1036E0002ED8239E05004255231005024255A30102
:1036F00005024255231D05004255231F0500425572
:10370000230105024255A30C05004255230C050078
:10371000525502D681455D35C2552315A10223902D
:10372000A50052550564930504802ED6413DC2552F
:103730002315A1022391A500525522D68565BD3DD2
:10374000C2552315A1022392A50052550964930581
:1037500004802ED6A535C2552315A1022394A500B9
:10376000525522D68965993DC2552315A10223964B
:10377000A50052550D64930504802ED68135C2559F
:103780002315A1022398A500525522D68D653D35FB
:10379000C2552315A102239AA5006254F25021615B
:1037A000828079712AD62ED44D8D9375F67F4D8DFA
:1037B000C165FD156D8D2313C1024561828079714C
:1037C00006D62AD49D2C09E937A56000130545CCFF
:1037D0009305B023EF50F05722554C5179767D1662
:1037E000F18D4CD122554C510966D18D4CD1B2503E
:1037F00045618280797106D62AD4812409E937A5EA
:103800006000130545CC9305B01EEF50905422552F
:103810000C511966D18D0CD122554C510966D18DB0
:103820004CD1B25045618280797106D62AD42313D7
:10383000B102212409E937A56000130545CC9305A1
:10384000B038EF501051225508451375050265FD3B
:1038500003556102A25588CDB250456182807971CD
:1038600006D62AD4D92A09E937A56000130545CC24
:103870009305D02BEF50F04D225548518965938523
:1038800005F06D8D2181B25045618280797106D637
:103890002AD4652209E937A56000130545CC9305B4
:1038A000B031EF50104B22554849C165FD156D8D63
:1038B000B25045618280397106DE2ADC2EDA231986
:1038C000C1022AD60145F13D2315A10223140102AC
:1038D0001D4583558102634CB500010083158102AB
:1038E00085052314B10283558102E358B5FE325594
:1038F0000841F13532550841F53D23140102130505
:10390000F00383558102634CB500010083158102E9
:1039100085052314B10283558102E358B5FE325563
:1039200008418355A1020937231401021305F00F42
:1039300083558102634CB500010083158102850522
:103940002314B10283558102E358B5FEF250216180
:103950008280397106DE22DC2ADA2ED803C5850181
:10396000058941C1425585652ED68355450052557E
:1039700013F6F57F2315C1028565353F425509646D
:10398000930504802ED60356850052551376F67F94
:103990002315C1020D37425522D68355C500525515
:1039A00013F6F57F2315C1028965313742550D6441
:1039B000930504802ED60356050152551376F67FE3
:1039C0002315C102CD3D425522D68355450152559E
:1039D00013F6F57F2315C1028D65F13D4255230C89
:1039E0000500425503452502058919CD42558355E9
:1039F000A501AE052ED60356E50152552315C10289
:103A00005D3D4255230105026254F25021618280DE
:103A10007971AA852AD61306C003054563EAC50055
:103A200032559305000E6367B50032551335850F87
:103A3000456182800145456182807971AA852AD6D7
:103A4000396605456388C5003255930506082D8DF6
:103A50001335150045618280797106D6EFC04FF8A5
:103A6000218913351500B25045618280011173E040
:103A7000107C37950300832505E593E5850623280B
:103A8000B5E473F0107C05618280797106D62AD482
:103A900005450D203705220013053510EF40503342
:103AA0000965130505C0814529280545AD20B2509B
:103AB0004561828079712AD6956523A2A51045615A
:103AC0008280397106DE2ADC2EDAEF30E03409E933
:103AD00037A56000130545BE93050069EF507027B8
:103AE0005255E25513161500719AB295F1052ED86C
:103AF00005890E052AD673E0107C4255B255104157
:103B000093060002B395B600D18D0CC173F0107C02
:103B1000F2502161828079712AD6B715100003A670
:103B200005C1518D23A8A5C04561828079712AD62F
:103B300045618280797106D62AD42120B250456130
:103B40008280797106D6EFC02FEA218913351500DE
:103B5000B25045618280797106D62AD42AD22AD001
:103B60003137025589651386058010C102551386C9
:103B700005C050C102551386059410C502559385A2
:103B800005D44CC50255B7450300938505404CCD7F
:103B9000025599654CD10255B755030093850580B0
:103BA0000CD502558D654CD902551386051810DDCC
:103BB00002551386052050DD02551386052830C1B5
:103BC0000255938505306CC1025595650CC90255A7
:103BD0001386050150C90255938505020CCD125577
:103BE000B25045618280397106DE22DC2AD8130585
:103BF000B0042ED66364B50002DA85A842552AD4F3
:103C00002AD2A9650CC11255938505404CC11255A5
:103C1000AD65938505800CC5125539649305048004
:103C20004CC512551306049010C912554CC91255B3
:103C3000B5651386054010DD12551386054850DD25
:103C40001255938505502CC1125513050502EFF04E
:103C50007F839255C8CD125500CD1255F5450CD92C
:103C60001255ED454CD922552ADA05452AD0525530
:103C70006254F25021618280397106DE22DC2AD83A
:103C80001305B0042ED66364B50002DA9DA8425530
:103C90002AD42AD2B165938505800CC11255AD6531
:103CA000138605C050C112550CC5125539649305D1
:103CB00004804CC512551306049010C912554CC906
:103CC0001255B5651386054010DD1255138605485B
:103CD00050DD1255938505502CC112551305050270
:103CE000EFF04FFA9255C8CD1255930504080CCD4C
:103CF0001255E1450CD912559305E0024CD92255D5
:103D00002ADA05452AD052556254F2502161828048
:103D1000797106D62AD4EFF03FD4225535202255AA
:103D20003129225507A58178EF00A0652255EF00C3
:103D3000A0692255EF00A06C2255EF00A072EF00A1
:103D4000E07CB250456182805D7186C6A2C4A6C285
:103D5000CAC04EDE52DC56DA5AD85ED62AD43704B0
:103D60000C0013051400EF40E05585450145EF4078
:103D7000E04101458145EF40404A13051420EF40E2
:103D8000605405458545EF40604005458145EF405D
:103D9000C04813051440EF40E05209458545EF4007
:103DA000E03E09458145EF40404713051460EF4070
:103DB00060510D458545EF40603D0D458145EF4023
:103DC000C04537140C0013051480EF40A04F114577
:103DD0008545EF40A03B11458145EF400044B729A0
:103DE0000C001385D9E0EF40E04D3D458545EF409F
:103DF000E0393D458145EF40404213851980EF4051
:103E0000604C31458545EF40603831458145EF4094
:103E1000C040138519A0EF40E04A35458545EF4085
:103E2000E03635458145EF40403F130514C0EF4073
:103E3000604919458545EF40603519458145EF409A
:103E4000C03D130514E0EF40E0471D458545EF40B8
:103E5000E0331D458145EF40403C37091000130514
:103E60005900EF40204641458545EF40203241450D
:103E70008145EF40803A13055920EF40A044454565
:103E80008545EF40A03045458145EF400039B72AD0
:103E9000100013850AA0EF40E04275458545EF20EC
:103EA000800375458545EF40602E75458145EF409F
:103EB000C036B71B8C0013850B40EF40A0401305A4
:103EC000A0028145EF40802C1305A0028145EF4000
:103ED000C03437151000371A1000EF40A03E61457E
:103EE0008545EF10507F61458545EF40202A6145AB
:103EF0008145EF408032372B8C0013050BA0EF403B
:103F0000603C1305D0028545EF4040281305D002E0
:103F10008145EF4080301305D0028145EF10B07B22
:103F2000B7048C0013850440EF40C039130520020C
:103F30008145EF40A025130520028145EF40E02D8B
:103F400013850B20EF400038130590028145EF40A8
:103F5000E023130590028145EF40202C130574A047
:103F6000EF40403615458545EF40402215458145D7
:103F7000EF40A02A37150C00EF40C034214585459D
:103F8000EF10707521458545EF404020214585455E
:103F9000EF40A02813057420EF40C0322545854529
:103FA000EF40C01E25458545EF402027130574408E
:103FB000EF40403129458145EF40401D2945854569
:103FC000EF40A0251305D460EF40C02F2D45854557
:103FD000EF40C01B2D458545EF402024138534203C
:103FE000EF40402E130510028545EF40201A1305BF
:103FF00010028145EF40602237058C00EF40802C95
:10400000130500028545EF10106D1305000285456C
:10401000EF40C017130500028545EF40002013054F
:104020006AC0EF40202A59458545EF402016594582
:104030008545EF40801E13853AE0EF40A0287D457E
:104040008145EF40A0147D458545EF40001D138557
:104050003AC0EF40202779458545EF402013794548
:104060008545EF40801B13050B80EF40A02513050D
:10407000C0028145EF4080111305C0028145EF4029
:10408000C01913850BA0EF40E023130550028145B2
:10409000EF40C00F130550028145EF400018138513
:1040A0000B60EF4020221305B0028145EF40000E67
:1040B0001305B0028145EF404016138509C0EF405B
:1040C000602039458145EF40600C39458145EF401E
:1040D000C01413050A20EF40E01E65458145EF40FE
:1040E000E00A65458145EF40401313050A40EF4063
:1040F000601D1305B0028145EF4040091305B00271
:104100008145EF40801113050960EF40A01B4D452C
:104110008545EF10505C4D458545EF4020074D45E6
:104120008145EF40800FB25B425BD25A625AF2592E
:10413000064996442644B64061618280397106DEA4
:1041400022DC26DA2AD82AD61305400697E0A0FFFB
:10415000E7800053EF00D07A096403250480A1654D
:104160004D8D2320A48073E0107C37950300854596
:104170004CC173F0107C377518001305159F97E03C
:10418000A0FFE780E04F325508419145EF00D0781D
:10419000325548419145EF003078325508419145FC
:1041A000EF00307B325548419145EF00907A32550F
:1041B0000841C145EF00907D32554841C145EF00AF
:1041C000F07C32550841EF10000032554841EF00B5
:1041D000907F1305047197E0A0FFE780604A930485
:1041E00004C01D4626858145EF102001130404807C
:1041F0001546AD46214722858145EF1020068545AD
:104200001546AD4621472285EF10400515469146DB
:10421000214726858145EF10600485451546914666
:1042200021472685EF108003894515469D46214785
:104230002685EF10A0028D4515469D46214726850F
:10424000EF10C00189451546994621472285EF1098
:10425000E0008D451546994621472285EF10000064
:1042600091451546954621472685EF00307F9545B7
:104270001546954621472685EF00507E9145154607
:10428000894621472285EF00707D95451546894670
:1042900021472285EF00907C994515469946214794
:1042A0002685EF00B07B9D4515469946214726851A
:1042B000EF00D07A99454546A94621472285EF006F
:1042C000F0799D454546A94621472285EF001079A2
:1042D000A1454546A14621472685EF003078A545F2
:1042E0004546A14621472685EF005077A94545461A
:1042F000B94621472685EF007076AD454546B9465B
:1043000021472685EF009075A145454695462147F2
:104310002285EF00B074A545454695462147228584
:10432000EF00D073A94545469D4621472285EF0001
:10433000F072AD4545469D4621472285EF0010723B
:10434000B1454546AD4621472685EF003071B5455C
:104350004546AD4621472685EF005070B14545469C
:10436000854621472285EF00706FB5454546854655
:1043700021472285EF00906ED2546254F2502161A1
:104380008280397106DE07A0C1782ADC2AFA2AD891
:104390005370A018D31510C02ED608498145EF20C0
:1043A000501042550849856593850580EF30704C63
:1043B00042550849B255EF20501142550849EF20A7
:1043C0005013F25021618280797106D62AD42AD204
:1043D000084D8145EF20F00C1255084D85659385F9
:1043E0000580EF3010491255084DFD55EF20F00DB6
:1043F0001255084DEF20F00FB2504561828079715F
:1044000006D62AD42AD2484DEF2080531255484D63
:10441000B7656202938505A00966130606589D4696
:10442000EF4000251255484DEF20C0541255484D1D
:10443000EF20A0571255484DEF20805A1255484D95
:10444000E145EF40E0321255484DEF20C05C125577
:10445000484DEF2020601255484DEF20604EB2507D
:1044600045618280797106D62AD42AD20855EF2078
:10447000006112550855B77589099385058037265F
:104480000600130606A88546EF30906A12550855B7
:1044900093050060EF204061125508559305000513
:1044A000EF20A06312550855EF20406712550855BC
:1044B0008145EF204069125508558945EF20A06BD2
:1044C000125508558145EF20806D1255085593050A
:1044D0003022EF30907412550855EF20606F12555E
:1044E000085509468145EF20E071125508558D4564
:1044F000EF301079125508559165EF20A0741255D0
:104500000855EF206077B25045618280797106D6F8
:10451000EF2010020545EF205003B2504561828024
:10452000797106D62AD42ED232D083C5E5000D2863
:104530009255225583C5F5002D2822558255992084
:10454000225582554D2E22558255412B2255EF0082
:10455000007322558255EF000079B2504561828088
:1045600079712AD62315B1022AD22312B5044561E6
:10457000828079712AD62315B1022AD22313B50479
:10458000456182805D7186C6A2C4A6C2AAC02EDE25
:104590002ADC231B01020545231AA1022319A102CB
:1045A0002318A10299C9F2556395A5020565130563
:1045B000554D231BA102054531A085659385554DB9
:1045C000231BB102231AA10221452319A10223189A
:1045D000A102056513050520EF10F018625508418A
:1045E0009145EF10701C625548419145EF10D01B6A
:1045F000625508459145EF10301B2317010289448D
:1046000041651304F5FF0355E10263CFA420035570
:10461000E102E2550A052E9508418945EF10501E2A
:104620000355E102E2550A052E950841EF1070206E
:104630000355E102E2550A052E9508418545EF1024
:10464000F0210355E102E2550A052E950841854502
:10465000EF1070240355E102E2550A052E9508413A
:1046600081450146EF10D0270355E102E2550A05C6
:104670002E9508418545EF10F02A0355E102E255D9
:104680000A052E9508418945EF3070240355E10253
:10469000E2550A052E9508418145EF10D02C0355AF
:1046A000E102E2550A052E9508418145EF10B02F31
:1046B0000355E102E2550A052E9508418145EF10A8
:1046C00030310355E102E2550A052E950841814536
:1046D0000146EF10D0320355E102E2550A052E954E
:1046E0000841A1450146EF1090310355E102E25522
:1046F0000A052E950841D1450146EF10503003556B
:10470000E102E2550A052E950841F1450146EF10F8
:10471000102F0355E102E2550A052E95084109467E
:1047200091468145EF10F0360355E102E2550A0546
:104730002E950841094689468145EF10903503556D
:10474000E102E2550A052E95084105469946814544
:10475000EF1030340355E102E2550A052E95084169
:10476000054681458146EF10D0320355E102E255FE
:104770000A052E95084185450546EF10D0390355A9
:10478000E102E2550A052E95084105468145EF10E4
:1047900090380355E102E2550A052E9508418145FE
:1047A000EF10F03C0355E102E2550A052E95084151
:1047B00085450146EF10F0400355E102E2550A0538
:1047C0002E95084105468145EF10B03F0355E102A3
:1047D000E2550A052E95084183552103EF107043D9
:1047E0000355E102E2550A052E9508418355010360
:1047F000EF1090460355E102E2550A052E95084157
:10480000EF10F0490355E102E2550A052E950841E3
:10481000A285EF10904B0315E10205052317A102B5
:104820000355E102E3D5A4DE625508418545EF104A
:10483000B04D62550841EF10B05A62550841294603
:104840008145EF10105D625508418145EF10D06F32
:1048500003554103C145634BB50062550841BD4551
:10486000EF10F072625508413D4605A8035541031B
:10487000635DA0006255084183554103EF1030711C
:10488000625508410356410309A862550841854510
:10489000EF10F06F6255084105468145EF10307505
:1048A00062550841EF10F07C625508418145EF10D8
:1048B000507F6255084183556103EF1070116255B6
:1048C000484183556103EF10B01062550845835588
:1048D0006103EF10F00F62550841D1452946EF10F2
:1048E000F07F056513050520EF100064964426440B
:1048F000B64061618280397106DE22DC2ADA2ED868
:104900002AD62315010223140102A9C54255854563
:104910006313B5080565130505E02315A10213050A
:1049200000202314A1020D458D45EF00701A0D459E
:104930008D45EF00901E25458145EF0070192545F6
:104940008145EF00901D0D458145EF0070180D4524
:10495000814581A00565130505E02315A102130516
:1049600000202314A10285450145EF0070168545FE
:104970000145EF00901A19459145EF007015194552
:104980009145EF0090198D450145EF0070148D455C
:104990000145EF00901823130102094403556102F9
:1049A0006349A41203556102B2550A052E95484584
:1049B000EF00501B03556102B2550A052E9548457C
:1049C0008145EF00101E03556102B2550A052E9570
:1049D00048458145EF00B02003556102B2550A05F4
:1049E0002E95484593058002EF00B02303556102E0
:1049F000B2550A052E9548459305A002EF003026D2
:104A000003556102B2550A052E95484593050002EB
:104A100013060002F946EF30804C03556102B2558F
:104A20000A052E954845EF00D02703556102B2557F
:104A30000A052E9548459305000213060002F94623
:104A4000EF30205803556102B2550A052E954845AE
:104A5000EF00702803556102B2550A052E954845AE
:104A60008545EF00902A03556102B2550A052E953F
:104A700048458145EF00D02E03556102B2550A0525
:104A80002E9548458355A102EF0050310355610230
:104A9000B2550A052E95484583558102EF00103422
:104AA00003556102B2550A052E954845EF001037AF
:104AB00003556102B2550A052E954845EF0050395D
:104AC0000315610205052313A10203556102E35B8F
:104AD000A4EC6254F25021618280397106DE22DC3E
:104AE0002ADA2ED82AD62315010209440355A10239
:104AF0006343A4140355A102B2550A052E95085D1F
:104B00009305E00F052C0355A102B2550A052E9519
:104B1000085D9305E00F852C0355A102B2550A05E7
:104B20002E95085D55240355A102B2550A052E9510
:104B3000085DE9240355A102B2550A052E95085DCA
:104B4000FD240355A102B2550A052E95085D0946BC
:104B50008145012E0355A102B2550A052E95085D27
:104B600005468145A9260355A102B2550A052E9591
:104B7000085D85450146252E0355A102B2550A055B
:104B80002E95085D894505461D260355A102B2559F
:104B90000A052E95085D8D450146112E0355A1028B
:104BA000B2550A052E95085D8145992E0355A1023F
:104BB000B2550A052E95085D854599260355A10233
:104BC000B2550A052E95085D89451D2E0355A10293
:104BD000B2550A052E95085D8D451D260355A10287
:104BE000B2550A052E95085DA92E0355A102B255AE
:104BF0000A052E95085D8145BD2E0355A102B255CB
:104C00000A052E95085D75260355A102B2550A05C1
:104C10002E95085DC92E0355A102B2550A052E95A1
:104C2000085DE52E0315A10205052315A102035514
:104C3000A102E351A4EC42551DED37150300B14527
:104C40001306C002292137150300C145130650027F
:104C5000FD2E37150300D1451306B002CD2E325577
:104C6000085D8D4585213255485D9145A129325514
:104C70002841954581296254F250216182807971E1
:104C800006D62AD42AD2084DEF00D0231255084D5B
:104C9000B7656202938505A037260600130706A8AC
:104CA0009946C1470146EF3090371255084DEF0045
:104CB00030241255084DC145EF0030261255084DDD
:104CC000EF0010291255084DC145EF00D02B1255A9
:104CD000084DA145EF30D0441255084DEF00502F3C
:104CE000B25045618280797106D62AD42ED22AD05C
:104CF000504D0C4D3285EFE09F9B125519CD12554A
:104D000085456316B5020255484D93050002EFE054
:104D1000FF9A0255484DE14509A80255484DA14565
:104D2000EFE0DF990255484DF545EFE01F9AB2508C
:104D300045618280797106D62AD42ED2EF20E00F09
:104D400009E937A56000130545C59305C024EF4068
:104D500050001255137515F009C937A560001305E9
:104D600045C593053025EF40C07E73E0107C225589
:104D70009255505593C5F5FFF18D4CD573F0107CCD
:104D8000B25045618280797106D62AD42ED2EF20A6
:104D9000C00A09E937A56000130545C59305F02A47
:104DA000EF40207B1255137515F009C937A5600037
:104DB000130545C59305602BEF40A0791255A25508
:104DC000C8D9B25045618280797106D62AD4EF20C5
:104DD000C00609E937A56000130545C59305B0383D
:104DE000EF40207773E0107C22554C5193F5F5EF9E
:104DF0004CD173F0107CB25045618280797106D637
:104E00002AD4EF20800309E937A56000130545C5C2
:104E100093054045EF40E07373E0107C22550C553C
:104E2000BD990CD573F0107CB250456182807971C8
:104E300006D62AD4EF20600009E937A560001305E3
:104E400045C59305B030EF40C07073E0107C22552B
:104E50000C5593F5F5DF0CD573F0107CB25045611D
:104E60008280797106D62AD42ED232D0EF10F07C0F
:104E700009E937A56000130545C59305A01DEF405E
:104E8000406D73E0107C2255085592552256799951
:104E90004D8D08D6225508558255225665998605AE
:104EA0004D8D08D673F0107CB25045618280397107
:104EB00006DE2ADC2EDA32D8EF10307809E937A581
:104EC0006000130545C59305201BEF4080685255CF
:104ED00006052AD673E0107C62554851B255054646
:104EE0003316B600C2561346F6FF6257718DB3955E
:104EF000B6004D8D48D373F0107CF2502161828052
:104F0000797106D62AD42ED2EF10307309E937A56D
:104F10006000130545C59305F033EF40806373E0EF
:104F2000107C1255A2550605D05113651500854613
:104F30003395A600518DC8D173F0107CB2504561F5
:104F40008280797106D62AD4EF10306F09E937A52F
:104F50006000130545C59305803EEF40805F73E018
:104F6000107C22550C5593E505020CD573F0107C8E
:104F7000B25045618280797106D62AD42ED2EF10C4
:104F8000D06B09E937A56000130545C59305A0431B
:104F9000EF40205C73E0107C225508559255225654
:104FA0001375F5F34D8D08D673F0107CB250456142
:104FB0008280797106D62AD4EF10306809E937A5C6
:104FC0006000130545C59305C046EF40805873E067
:104FD000107C22550C5593E505010CD573F0107C1F
:104FE000B25045618280797106D62AD4EF10F06400
:104FF00009E937A56000130545C593053037EF4033
:10500000405573E0107C22554C5193E505104CD16E
:1050100073F0107CB25045618280797106D62AD433
:10502000EF10B06109E937A56000130545C5930588
:10503000B01FEF40005273E0107C22550C5593E5F1
:1050400085000CD573F0107CB25045618280797177
:1050500006D62AD42ED21305F00232D0636CA602F3
:105060000255C165F5156365B500035521021DC1E3
:1050700002559305000E6367B50002559305600F56
:10508000636AB50037A560001305B5CF9305803777
:10509000EF40204C2255EF10305D09E937A5600044
:1050A0001305B5CF93059037EF40A04A73E0107C0D
:1050B0002255925502562E9510C173F0107CB250B5
:1050C00045618280797106D62AD42ED2EF10F0562F
:1050D00009E937A56000130545C593056056EF4003
:1050E000404773E0107C22550851925522561375A3
:1050F00005F84D8D08D273F0107CB2504561828066
:10510000011173E0107C379503000C41F9990CC133
:1051100073F0107C05618280797106D62AD42ED274
:10512000EF10904F09E937A56000130545BE9305C0
:10513000E018EF40004273E0107C22554841925540
:10514000225641994D8D48C273F0107CB250456192
:105150008280797106D62AD42ED2EF10F04B09E95D
:1051600037A56000130545BE93057022EF40603EF1
:1051700073E0107C22550841925522566D994D8D51
:1051800008C273F0107CB25045618280797106D6F6
:105190002AD42ED2EF10504809E937A56000130534
:1051A00045BE9305A041EF40C03A73E0107C225504
:1051B00048519255225601994D8D48D273F0107C7A
:1051C000B25045618280797106D62AD4EF10D0445E
:1051D00009E937A56000130545BE9305A026EF40F9
:1051E000403773E0107C22550C4193E505080CC153
:1051F00073F0107CB25045618280397106DE2ADC82
:105200002EDA32D8EF10504109E937A560001305B6
:1052100045BE9305006FEF40C0335255E25513165B
:105220001500719AB295F1052ED605890E052AD47E
:1052300073E0107C32550841A2553D463316B60046
:10524000C2561346F6FF3257718DB395B6004D8D99
:1052500008C373F0107CF25021618280397106DE40
:105260002ADC2EDA32D836D63AD4EF10F03A09E9F1
:1052700037A56000130545BE9305501CEF40602D17
:10528000225511C5225593051020636AB50037A534
:105290006000130545BE9305601CEF40802B5255FE
:1052A000E2550A052E95130505042AD273E0107CF9
:1052B0003255C2553E052256D20592564D8D930564
:1052C000F6FF4D8D88C273F0107CF2502161828010
:1052D000797106D62AD415452ED263EAA50037A5E2
:1052E0006000130535D39305101BEF40802673E053
:1052F000107C379503004C4522569D461257B396B5
:10530000C60093C6F6FFF58D3316C700D18D4CC588
:1053100073F0107CB25045618280797106D62AD430
:1053200015452ED263EAA50037A56000130535D3D5
:105330009305501DEF40E02173E0107C379503008A
:105340000C4922569D461257B396C60093C6F6FFE7
:10535000F58D3316C700D18D0CC973F0107CB25097
:1053600045618280797106D62AD4EF10B03309E9FD
:1053700037A560001305B5C19305000EEF40601D11
:1053800073E0107C22550C412166D18D0CC1225551
:105390004C4193E585004CC173F0107CB2504561DF
:1053A0008280797106D62AD42ED2EF10B02F09E967
:1053B00037A560001305B5C19305C012EF40601911
:1053C00073E0107C22550841925522561375C5FB97
:1053D0004D8D08C273F0107CB250456182807971A6
:1053E00006D62AD42ED2EF10F02B09E937A560009B
:1053F0001305B5C19305A015EF40A01573E0107C0F
:1054000022550841F17512569385F5CFA2566D8D40
:10541000931586004D8D88C273F0107CB2504561A3
:105420008280797106D62AD42ED2EF10B02709E9EE
:1054300037A560001305B5C193059018EF406011C2
:1054400073E0107C2255084192552256137535FCA5
:105450004D8D08C273F0107CB25045618280797125
:1054600006D62AD42ED2EF10F02309E937A5600022
:105470001305B5C19305A01BEF40A00D73E0107C90
:1054800022550841F17512569385F53FA2566D8D50
:10549000931586004D8D88C273F0107CB250456123
:1054A0008280797106D62AD4EF10D01F09E937A57A
:1054B00060001305B5C193050027EF40800973E034
:1054C000107C22552C452166D18D2CC573F0107CA3
:1054D000B25045618280797106D62AD4EF10901CB3
:1054E00009E937A560001305B5C193051029EF4000
:1054F000400673E0107C22552C412166D18D2CC1D1
:1055000073F0107CB25045618280797106D62AD43E
:105510002ED2EF10301909E937A560001305B5C187
:105520009305803EEF40E00212559D45636AB50049
:1055300037A560001305B5C19305903EEF406001AB
:1055400073E0107C22554C41E1994CC12255925593
:105550005041D18D4CC173F0107CB25045618280B6
:10556000797106D62AD42ED2EF10D01309E937A5C7
:1055700060001305B5C193050021EF30907D73E005
:10558000107C22550849925522561375E5F54D8D2C
:1055900008CA73F0107CB25045618280797106D6DA
:1055A0002AD42ED2EF10101009E937A56000130598
:1055B000B5C193054023EF30D0791255318109C927
:1055C00037A560001305B5C193055023EF307078FF
:1055D0001255A255C8C9B25045618280797106D66C
:1055E0002AD42ED2EF10100C09E937A5600013055C
:1055F000B5C193052025EF30D0751255318109C909
:1056000037A560001305B5C193053025EF307074E0
:105610001255A25588D9B25045618280797106D65B
:105620002AD4EF10300809E937A560001305B5C189
:105630009305502EEF30F07173E0107C22554C45ED
:1056400093E525004CC573F0107CB2504561828013
:10565000797106D62AD4EF10F00409E937A5600065
:105660001305B5C193053030EF30B06E73E0107C98
:1056700022554C4593E505204CC573F0107CB25083
:1056800045618280797106D62AD42AD2484DEFD05E
:105690009FE2B25045618280797106D62AD42ED21B
:1056A0002AD0484DEFE0EFAAB2504561828079716F
:1056B00006D62AD42ED22AD0484DEFE0EF81B25040
:1056C00045618280797106D62AD4EF10300109E94C
:1056D00037A56000130545CC9305C01BEF307067FC
:1056E00022550C4193F5F5F70CC1B250456182800B
:1056F000797106D62AD4EF10607E09E937A56000DB
:10570000130545CC93053042EF30B06422550C416F
:10571000BD990CC1B25045618280797106D62AD4F8
:105720002ED2EF10A07B09E937A56000130545CC08
:1057300093058046EF30F06122554855835541026C
:1057400022561375F5FC4D8D48D6B25045618280C6
:10575000797106D62AD4EF10607809E937A5600080
:10576000130545CC9305B01EEF30B05E22550C51A9
:105770001966D18D0CD122554C510966D18D4CD171
:10578000B25045618280797106D62AD42313B102C2
:10579000EF10C07409E937A56000130545CC9305E7
:1057A0006048EF30105B0355610293050010636A97
:1057B000B50037A56000130545CC93057048EF3060
:1057C000505903556102A25588D5B2504561828077
:1057D000797106D62AD4EF10607009E937A5600008
:1057E000130545CC9305501AEF30B05622550C41A5
:1057F00093E505080CC1B25045618280397106DE1F
:1058000022DC2ADA2ED82AD6639F051C73E0107C8E
:105810003715030023280540232A054073F0107C28
:1058200021458145EF30503F0565930515802145A1
:10583000EF30903E214593050020EF30F03D41656B
:105840009305F5FF214579262145CD454D2E371588
:105850000300130620028145EFF06FFF37150300A8
:105860008145C9262315010209440355A102634459
:10587000A4100355A102B2550A052E9508419305BF
:105880000010E92E0355A102B2550A052E950841D4
:1058900093050004014609210355A102B2550A05EA
:1058A0002E950841930500040946FD260355A102E3
:1058B000B2550A052E9508410946814591210355A7
:1058C000A102B2550A052E950841994511460D29A8
:1058D0000355A102B2550A052E950841854681451A
:1058E000014685290355A102B2550A052E950841A6
:1058F000914585460146B1290355A102B2550A05D5
:105900002E95084185468145014655290355A1023A
:10591000B2550A052E950841914585460146452117
:105920000355A102B2550A052E95084191653D2601
:105930000355A102B2550A052E950841A165392EDD
:105940000355A102B2550A052E9508410946814525
:10595000F1290355A102B2550A052E950841894542
:105960000946E9210315A10205052315A1020355E6
:10597000A102E350A4F02315010209440355A1023A
:105980006344A4040355A102B2550A052E95484567
:10599000EFF0DFC80355A102B2550A052E95484520
:1059A000EFF01FCB0355A102B2550A052E95084111
:1059B0009305E007E9210315A10205052315A102BE
:1059C0000355A102E350A4FC325508419305E007BA
:1059D0007D21325548419305E00755213255084550
:1059E0009305E0076929425585456311B51E73E0AB
:1059F000107C3715030023280540232A054073F047
:105A0000107C314593050040EF301021056593056A
:105A100015C03145EF305020314593050060EF301F
:105A2000B01F41659305F5FF31456D223145930562
:105A3000C004F12237150300914513069002EFF0E0
:105A40000FE1371503009145F12A2315010209449E
:105A50000355A1026344A4100355A102B2550A05DF
:105A60002E95084193050010D52A0355A102B25581
:105A70000A052E950841930500080146312C03556F
:105A8000A102B2550A052E95084193050008094662
:105A900021240355A102B2550A052E950841094655
:105AA0008145B92C0355A102B2550A052E9508412E
:105AB00099451146B1240355A102B2550A052E9508
:105AC000084185468145014669240355A102B25526
:105AD0000A052E9508419145854601469D2C0355A2
:105AE000A102B2550A052E95084185468145014619
